{
  "contractName": "FungibleAsset",
  "abi": [
    {
      "inputs": [
        {
          "name": "_owner",
          "type": "address"
        }
      ],
      "payable": false,
      "stateMutability": "nonpayable",
      "type": "constructor"
    },
    {
      "anonymous": false,
      "inputs": [
        {
          "indexed": false,
          "name": "sender",
          "type": "address"
        },
        {
          "indexed": false,
          "name": "recipient",
          "type": "address"
        },
        {
          "indexed": false,
          "name": "amount",
          "type": "uint256"
        },
        {
          "indexed": false,
          "name": "balance_sender",
          "type": "uint256"
        },
        {
          "indexed": false,
          "name": "balance_recipient",
          "type": "uint256"
        }
      ],
      "name": "AssetRegisterEvent",
      "type": "event"
    },
    {
      "constant": false,
      "inputs": [
        {
          "name": "_recipient",
          "type": "address"
        },
        {
          "name": "_amount",
          "type": "uint256"
        }
      ],
      "name": "issueAssets",
      "outputs": [],
      "payable": false,
      "stateMutability": "nonpayable",
      "type": "function"
    },
    {
      "constant": false,
      "inputs": [
        {
          "name": "_sender",
          "type": "address"
        },
        {
          "name": "_recipient",
          "type": "address"
        },
        {
          "name": "_amount",
          "type": "uint256"
        }
      ],
      "name": "transfer",
      "outputs": [],
      "payable": false,
      "stateMutability": "nonpayable",
      "type": "function"
    },
    {
      "constant": true,
      "inputs": [
        {
          "name": "_user",
          "type": "address"
        }
      ],
      "name": "getBalance",
      "outputs": [
        {
          "name": "",
          "type": "uint256"
        }
      ],
      "payable": false,
      "stateMutability": "view",
      "type": "function"
    }
  ],
  "bytecode": "0x608060405234801561001057600080fd5b506040516020806107e583398101806040528101908080519060200190929190505050806000806101000a81548173ffffffffffffffffffffffffffffffffffffffff021916908373ffffffffffffffffffffffffffffffffffffffff16021790555050610762806100836000396000f300608060405260043610610057576000357c0100000000000000000000000000000000000000000000000000000000900463ffffffff1680634d667cf41461005c578063beabacc8146100a9578063f8b2cb4f14610116575b600080fd5b34801561006857600080fd5b506100a7600480360381019080803573ffffffffffffffffffffffffffffffffffffffff1690602001909291908035906020019092919050505061016d565b005b3480156100b557600080fd5b50610114600480360381019080803573ffffffffffffffffffffffffffffffffffffffff169060200190929190803573ffffffffffffffffffffffffffffffffffffffff16906020019092919080359060200190929190505050610382565b005b34801561012257600080fd5b50610157600480360381019080803573ffffffffffffffffffffffffffffffffffffffff1690602001909291905050506106ed565b6040518082815260200191505060405180910390f35b6000809054906101000a900473ffffffffffffffffffffffffffffffffffffffff1673ffffffffffffffffffffffffffffffffffffffff163373ffffffffffffffffffffffffffffffffffffffff16141515610257576040517f08c379a000000000000000000000000000000000000000000000000000000000815260040180806020018281038252602f8152602001807f4173736574732063616e206f6e6c79206265206973737565642062792074686581526020017f207265676973747279206f776e6572000000000000000000000000000000000081525060400191505060405180910390fd5b80600160008473ffffffffffffffffffffffffffffffffffffffff1673ffffffffffffffffffffffffffffffffffffffff168152602001908152602001600020600082825401925050819055507f34ae7779d4c90619282b3368b4dd0b74822ca4317934b4acd6e520a3835c15f9600083836000600160008873ffffffffffffffffffffffffffffffffffffffff1673ffffffffffffffffffffffffffffffffffffffff16815260200190815260200160002054604051808673ffffffffffffffffffffffffffffffffffffffff1681526020018573ffffffffffffffffffffffffffffffffffffffff1673ffffffffffffffffffffffffffffffffffffffff1681526020018481526020018381526020018281526020019550505050505060405180910390a15050565b6000809054906101000a900473ffffffffffffffffffffffffffffffffffffffff1673ffffffffffffffffffffffffffffffffffffffff163373ffffffffffffffffffffffffffffffffffffffff1614151561046c576040517f08c379a00000000000000000000000000000000000000000000000000000000081526004018080602001828103825260348152602001807f4173736574732063616e206f6e6c79206265207472616e73666572726564206281526020017f7920746865207265676973747279206f776e657200000000000000000000000081525060400191505060405180910390fd5b80600160008573ffffffffffffffffffffffffffffffffffffffff1673ffffffffffffffffffffffffffffffffffffffff168152602001908152602001600020541015610521576040517f08c379a00000000000000000000000000000000000000000000000000000000081526004018080602001828103825260128152602001807f4e6f7420656e6f7567682062616c616e6365000000000000000000000000000081525060200191505060405180910390fd5b80600160008573ffffffffffffffffffffffffffffffffffffffff1673ffffffffffffffffffffffffffffffffffffffff1681526020019081526020016000206000828254039250508190555080600160008473ffffffffffffffffffffffffffffffffffffffff1673ffffffffffffffffffffffffffffffffffffffff168152602001908152602001600020600082825401925050819055507f34ae7779d4c90619282b3368b4dd0b74822ca4317934b4acd6e520a3835c15f9838383600160008873ffffffffffffffffffffffffffffffffffffffff1673ffffffffffffffffffffffffffffffffffffffff16815260200190815260200160002054600160008873ffffffffffffffffffffffffffffffffffffffff1673ffffffffffffffffffffffffffffffffffffffff16815260200190815260200160002054604051808673ffffffffffffffffffffffffffffffffffffffff1673ffffffffffffffffffffffffffffffffffffffff1681526020018573ffffffffffffffffffffffffffffffffffffffff1673ffffffffffffffffffffffffffffffffffffffff1681526020018481526020018381526020018281526020019550505050505060405180910390a1505050565b6000600160008373ffffffffffffffffffffffffffffffffffffffff1673ffffffffffffffffffffffffffffffffffffffff1681526020019081526020016000205490509190505600a165627a7a723058206aa68e772b7b009bb0a8118cc792b03e8cd5b5ff7a0b82937beb238e168edc190029",
  "source": "pragma solidity ^0.4.24;\n\ncontract FungibleAsset {\n    address registryOwner;\n\n    mapping (address => uint) balances;\n\n    event AssetRegisterEvent(address sender, address recipient, uint amount, uint balance_sender, uint balance_recipient);\n  \n\n    constructor(address _owner) public {\n        registryOwner = _owner;\n    }\n\n    function issueAssets(address _recipient, uint _amount) public {\n        if (msg.sender != registryOwner) {\n            revert(\"Assets can only be issued by the registry owner\");\n        }\n\n        balances[_recipient] += _amount;\n\n        emit AssetRegisterEvent(0x00, _recipient, _amount, 0, balances[_recipient]);\n    }\n\n    function transfer(address _sender, address _recipient, uint _amount) public {\n        if (msg.sender != registryOwner) {\n            revert(\"Assets can only be transferred by the registry owner\");\n        }\n\n        if (balances[_sender] < _amount) {\n            revert(\"Not enough balance\");\n        }\n\n        balances[_sender] -= _amount;\n        balances[_recipient] += _amount;\n\n        emit AssetRegisterEvent(_sender, _recipient, _amount,balances[_sender],balances[_recipient]);\n    }\n\n    function getBalance(address _user) public view returns (uint){\n      return balances[_user];\n    }\n}\n",
  "sourcePath": "/Users/adrian/Cloud Drives/Dropbox/Dev/porthos/solidity/contracts/FungibleAsset.sol",
  "compiler": {
    "name": "solc",
    "version": "0.4.24+commit.e67f0147.Emscripten.clang"
  },
  "schemaVersion": "2.0.1",
  "updatedAt": "2018-10-10T05:24:22.807Z"
}