{
  "contractName": "NotaryConnector",
  "abi": [
    {
      "anonymous": false,
      "inputs": [
        {
          "indexed": false,
          "name": "message",
          "type": "string"
        },
        {
          "indexed": false,
          "name": "blockNumber",
          "type": "uint256"
        }
      ],
      "name": "LogEvent",
      "type": "event"
    },
    {
      "constant": false,
      "inputs": [],
      "name": "fireTestMessage",
      "outputs": [],
      "payable": false,
      "stateMutability": "nonpayable",
      "type": "function"
    },
    {
      "constant": false,
      "inputs": [
        {
          "name": "_message",
          "type": "string"
        }
      ],
      "name": "fireMessage",
      "outputs": [],
      "payable": false,
      "stateMutability": "nonpayable",
      "type": "function"
    }
  ],
  "bytecode": "0x608060405234801561001057600080fd5b50610216806100206000396000f30060806040526004361061004c576000357c0100000000000000000000000000000000000000000000000000000000900463ffffffff16806327524b99146100515780636b46e3bc14610068575b600080fd5b34801561005d57600080fd5b506100666100d1565b005b34801561007457600080fd5b506100cf600480360381019080803590602001908201803590602001908080601f0160208091040260200160405190810160405280939291908181526020018383808284378201915050505050509192919290505050610143565b005b7fb3baf5e190f6dba2d267361169dc414d32435a61ea6d5e0e851a6f8d0b0c248a4360405180806020018381526020018281038252600b8152602001807f48656c6c6f20576f726c640000000000000000000000000000000000000000008152506020019250505060405180910390a1565b7fb3baf5e190f6dba2d267361169dc414d32435a61ea6d5e0e851a6f8d0b0c248a81436040518080602001838152602001828103825284818151815260200191508051906020019080838360005b838110156101ac578082015181840152602081019050610191565b50505050905090810190601f1680156101d95780820380516001836020036101000a031916815260200191505b50935050505060405180910390a1505600a165627a7a723058201c4fb9695a970147a4ec1cf9191df87ada4edb05e8e091d35daad5024aec1b2e0029",
  "source": "pragma solidity ^0.4.24;\n\ncontract NotaryConnector {\n  event LogEvent(string message, uint blockNumber);\n\n  function fireTestMessage() public {\n  \temit LogEvent(\"Hello World\", block.number);\n  }\n\n  function fireMessage(string _message) public {\n  \temit LogEvent(_message, block.number);\n  }\n}",
  "sourcePath": "/Users/adrian/Cloud Drives/Dropbox/Dev/porthos/solidity/contracts/NotaryConnector.sol",
  "compiler": {
    "name": "solc",
    "version": "0.4.24+commit.e67f0147.Emscripten.clang"
  },
  "schemaVersion": "2.0.1",
  "updatedAt": "2018-10-11T07:47:36.166Z"
}