{
  "contractName": "PorthosContract",
  "abi": [
    {
      "inputs": [],
      "payable": false,
      "stateMutability": "nonpayable",
      "type": "constructor"
    },
    {
      "anonymous": false,
      "inputs": [
        {
          "indexed": false,
          "name": "message",
          "type": "string"
        }
      ],
      "name": "LogEvent",
      "type": "event"
    },
    {
      "constant": false,
      "inputs": [
        {
          "name": "assetType",
          "type": "string"
        },
        {
          "name": "quantity",
          "type": "uint256"
        },
        {
          "name": "recipient",
          "type": "address"
        }
      ],
      "name": "issueAsset",
      "outputs": [],
      "payable": false,
      "stateMutability": "nonpayable",
      "type": "function"
    },
    {
      "constant": true,
      "inputs": [
        {
          "name": "_commitmentId",
          "type": "uint256"
        }
      ],
      "name": "fetchCommitment",
      "outputs": [
        {
          "name": "",
          "type": "string"
        },
        {
          "name": "",
          "type": "uint256"
        },
        {
          "name": "",
          "type": "address"
        },
        {
          "name": "",
          "type": "address"
        },
        {
          "name": "",
          "type": "uint256"
        }
      ],
      "payable": false,
      "stateMutability": "view",
      "type": "function"
    },
    {
      "constant": true,
      "inputs": [],
      "name": "getContractStatus",
      "outputs": [
        {
          "name": "",
          "type": "uint256"
        }
      ],
      "payable": false,
      "stateMutability": "view",
      "type": "function"
    },
    {
      "constant": true,
      "inputs": [
        {
          "name": "s",
          "type": "string"
        }
      ],
      "name": "stringToUint",
      "outputs": [
        {
          "name": "result",
          "type": "uint256"
        }
      ],
      "payable": false,
      "stateMutability": "view",
      "type": "function"
    }
  ],
  "bytecode": "0x6080604052600060025534801561001557600080fd5b5033600660006101000a81548173ffffffffffffffffffffffffffffffffffffffff021916908373ffffffffffffffffffffffffffffffffffffffff160217905550306100606100f8565b808273ffffffffffffffffffffffffffffffffffffffff1673ffffffffffffffffffffffffffffffffffffffff168152602001915050604051809103906000f0801580156100b2573d6000803e3d6000fd5b50600560006101000a81548173ffffffffffffffffffffffffffffffffffffffff021916908373ffffffffffffffffffffffffffffffffffffffff160217905550610108565b6040516105de806108c283390190565b6107ab806101176000396000f300608060405260043610610062576000357c0100000000000000000000000000000000000000000000000000000000900463ffffffff1680631bd9515514610067578063c032846b146100e4578063e3b917971461010f578063e4c07be214610229575b600080fd5b34801561007357600080fd5b506100ce600480360381019080803590602001908201803590602001908080601f01602080910402602001604051908101604052809392919081815260200183838082843782019150505050505091929192905050506102bc565b6040518082815260200191505060405180910390f35b3480156100f057600080fd5b506100f961038e565b6040518082815260200191505060405180910390f35b34801561011b57600080fd5b5061013a60048036038101908080359060200190929190505050610398565b60405180806020018681526020018573ffffffffffffffffffffffffffffffffffffffff1673ffffffffffffffffffffffffffffffffffffffff1681526020018473ffffffffffffffffffffffffffffffffffffffff1673ffffffffffffffffffffffffffffffffffffffff168152602001838152602001828103825287818151815260200191508051906020019080838360005b838110156101ea5780820151818401526020810190506101cf565b50505050905090810190601f1680156102175780820380516001836020036101000a031916815260200191505b50965050505050505060405180910390f35b34801561023557600080fd5b506102ba600480360381019080803590602001908201803590602001908080601f016020809104026020016040519081016040528093929190818152602001838380828437820191505050505050919291929080359060200190929190803573ffffffffffffffffffffffffffffffffffffffff169060200190929190505050610533565b005b6000606060008084925060009350600091505b82518210156103865782828151811015156102e657fe5b9060200101517f010000000000000000000000000000000000000000000000000000000000000090047f0100000000000000000000000000000000000000000000000000000000000000027f01000000000000000000000000000000000000000000000000000000000000009004905060308110158015610368575060398111155b156103795760308103600a85020193505b81806001019250506102cf565b505050919050565b6000600254905090565b60606000806000806003868154811015156103af57fe5b90600052602060002090600602016003016003878154811015156103cf57fe5b9060005260206000209060060201600401546003888154811015156103f057fe5b906000526020600020906006020160010160009054906101000a900473ffffffffffffffffffffffffffffffffffffffff1660038981548110151561043157fe5b906000526020600020906006020160020160009054906101000a900473ffffffffffffffffffffffffffffffffffffffff1660038a81548110151561047257fe5b906000526020600020906006020160050154848054600181600116156101000203166002900480601f0160208091040260200160405190810160405280929190818152602001828054600181600116156101000203166002900480156105195780601f106104ee57610100808354040283529160200191610519565b820191906000526020600020905b8154815290600101906020018083116104fc57829003601f168201915b505050505094509450945094509450945091939590929450565b3373ffffffffffffffffffffffffffffffffffffffff16600660009054906101000a900473ffffffffffffffffffffffffffffffffffffffff1673ffffffffffffffffffffffffffffffffffffffff161415156105f8576040517f08c379a000000000000000000000000000000000000000000000000000000000815260040180806020018281038252601f8152602001807f4f6e6c7920746865206f776e65722063616e206973737565206173736574730081525060200191505060405180910390fd5b6004836040518082805190602001908083835b602083101515610630578051825260208201915060208101905060208303925061060b565b6001836020036101000a038019825116818451168082178552505050505050905001915050908152602001604051809103902060009054906101000a900473ffffffffffffffffffffffffffffffffffffffff1673ffffffffffffffffffffffffffffffffffffffff1660405180807f697373756541737365747328616464726573732c2075696e7429000000000000815250601a01905060405180910390207c0100000000000000000000000000000000000000000000000000000000900482846040518363ffffffff167c0100000000000000000000000000000000000000000000000000000000028152600401808373ffffffffffffffffffffffffffffffffffffffff1673ffffffffffffffffffffffffffffffffffffffff168152602001828152602001925050506000604051808303816000875af192505050151561077a57600080fd5b5050505600a165627a7a72305820216041ec17cb1cfa135fb467452128440a7461b143baac08d01ef3f90ba392cf0029608060405234801561001057600080fd5b506040516020806105de83398101806040528101908080519060200190929190505050806000806101000a81548173ffffffffffffffffffffffffffffffffffffffff021916908373ffffffffffffffffffffffffffffffffffffffff1602179055505061055b806100836000396000f300608060405260043610610057576000357c0100000000000000000000000000000000000000000000000000000000900463ffffffff1680634d667cf41461005c578063beabacc8146100a9578063f8b2cb4f14610116575b600080fd5b34801561006857600080fd5b506100a7600480360381019080803573ffffffffffffffffffffffffffffffffffffffff1690602001909291908035906020019092919050505061016d565b005b3480156100b557600080fd5b50610114600480360381019080803573ffffffffffffffffffffffffffffffffffffffff169060200190929190803573ffffffffffffffffffffffffffffffffffffffff169060200190929190803590602001909291905050506102a8565b005b34801561012257600080fd5b50610157600480360381019080803573ffffffffffffffffffffffffffffffffffffffff1690602001909291905050506104e6565b6040518082815260200191505060405180910390f35b6000809054906101000a900473ffffffffffffffffffffffffffffffffffffffff1673ffffffffffffffffffffffffffffffffffffffff163373ffffffffffffffffffffffffffffffffffffffff16141515610257576040517f08c379a000000000000000000000000000000000000000000000000000000000815260040180806020018281038252602f8152602001807f4173736574732063616e206f6e6c79206265206973737565642062792074686581526020017f207265676973747279206f776e6572000000000000000000000000000000000081525060400191505060405180910390fd5b80600160008473ffffffffffffffffffffffffffffffffffffffff1673ffffffffffffffffffffffffffffffffffffffff168152602001908152602001600020600082825401925050819055505050565b6000809054906101000a900473ffffffffffffffffffffffffffffffffffffffff1673ffffffffffffffffffffffffffffffffffffffff163373ffffffffffffffffffffffffffffffffffffffff16141515610392576040517f08c379a00000000000000000000000000000000000000000000000000000000081526004018080602001828103825260348152602001807f4173736574732063616e206f6e6c79206265207472616e73666572726564206281526020017f7920746865207265676973747279206f776e657200000000000000000000000081525060400191505060405180910390fd5b80600160008573ffffffffffffffffffffffffffffffffffffffff1673ffffffffffffffffffffffffffffffffffffffff168152602001908152602001600020541015610447576040517f08c379a00000000000000000000000000000000000000000000000000000000081526004018080602001828103825260128152602001807f4e6f7420656e6f7567682062616c616e6365000000000000000000000000000081525060200191505060405180910390fd5b80600160008573ffffffffffffffffffffffffffffffffffffffff1673ffffffffffffffffffffffffffffffffffffffff1681526020019081526020016000206000828254039250508190555080600160008473ffffffffffffffffffffffffffffffffffffffff1673ffffffffffffffffffffffffffffffffffffffff16815260200190815260200160002060008282540192505081905550505050565b6000600160008373ffffffffffffffffffffffffffffffffffffffff1673ffffffffffffffffffffffffffffffffffffffff1681526020019081526020016000205490509190505600a165627a7a72305820b335804f3ae5cf2848210e2bd46c8cdbe01a8ff6e9d5d996bfdb56f22f5cafbb0029",
  "source": "pragma solidity ^0.4.24;\n\nimport \"./FungibleAsset.sol\";\nimport \"./strings.sol\";\n\ncontract PorthosContract {\n  using strings for *;\n\n  struct Commitment {\n      string tagId;\n      address sender;\n      address recipient;\n      string assetType;\n      uint quantity;\n      uint status; // 0 = open; 1 = released; 2 = cancelled\n  }\n\n  event LogEvent(string message);\n  mapping (string => bool) internal semaphore;\n  mapping (string => uint8) private gateStatus;\n  uint internal contractStatus = 0;\n\n  Commitment[] commitments;\n\n  mapping (string => address) private assetRegisters;\n\n  FungibleAsset eurAssetRegistry;\n\n  address owner;\n\n  constructor () public {\n    owner = msg.sender;\n    eurAssetRegistry = new FungibleAsset(this);\n  }\n\n  function issueAsset(string assetType, uint quantity, address recipient) public {\n    if (owner != msg.sender) {\n        revert(\"Only the owner can issue assets\");\n    }\n\n    require(assetRegisters[assetType].call(bytes4(keccak256(\"issueAssets(address, uint)\")), recipient, quantity));\n  }\n\n  function addAssetRegister (string assetType, address register) internal {\n    assetRegisters[assetType] = register;\n  }\n\n  function addCommitment(Commitment c) internal {\n    // transfer the ownership of the asset to this contract\n    eurAssetRegistry.transfer(c.sender, this, c.quantity);\n\n    // add to commitments\n    commitments.push(c);\n  }\n\n  function releaseCommitment(uint _commitmentId) internal {\n    // fetch the commitment\n    Commitment storage c = commitments[_commitmentId];\n\n    // check that it is still open\n    require(c.status == 0, \"Commitment status must be Open (0) to allow release\");\n\n    // transfer the ownership of the asset (in the commitment) to the recipient\n    require(assetRegisters[c.assetType].call(bytes4(keccak256(\"transfer(address, address, uint)\")), this, c.recipient, c.quantity));\n\n    // mark commitment as released\n    commitments[_commitmentId].status = 1;\n  }\n\n  function cancelCommitment(uint _commitmentId) internal {\n    // fetch the commitment\n    Commitment storage c = commitments[_commitmentId];\n\n    // check that it is still open\n    require(c.status == 0, \"Commitment status must be Open (0) to allow cancel\");\n\n\n    // return the ownership of the asset (in the commitment) to the sender\n    require(assetRegisters[c.assetType].call(bytes4(keccak256(\"transfer(address, address, uint)\")), this, c.sender, c.quantity));\n\n    // mark commitment as cancelled\n    commitments[_commitmentId].status = 2;\n  }\n\n  function fetchCommitment(uint _commitmentId) public view returns (string, uint, address, address, uint) {\n    return (commitments[_commitmentId].assetType,\n            commitments[_commitmentId].quantity,\n            commitments[_commitmentId].sender,\n            commitments[_commitmentId].recipient,\n            commitments[_commitmentId].status);\n  }\n\n  function getContractStatus() public view returns (uint) {\n    return contractStatus;\n  }\n\n  function setContractStatus(uint _status) internal {\n    contractStatus = _status;\n  }\n\n  function openGate(string _gateName) internal {\n    gateStatus[_gateName] = 1;\n  }\n\n  function closeGate(string _gateName) internal {\n    gateStatus[_gateName] = 2;\n  }\n\n  function isGateOpen(string _gateName) internal returns (bool) {\n    return gateStatus[_gateName] == 1;\n  }\n\n  function isGateClosed(string _gateName) internal returns (bool) {\n    return gateStatus[_gateName] == 2;\n  }\n\n  function releaseCommitments(string _commitments) internal {\n    var s = _commitments.toSlice();\n    var delim = \",\".toSlice();\n    var parts = new uint[](s.count(delim) + 1);\n\n    for (uint i = 0; i < parts.length; i++) {\n      parts[i] = stringToUint(s.split(delim).toString());\n    }\n\n    uint arrayLength = parts.length;\n\n    for (uint j = 0; j < arrayLength; j++) {\n      if (commitments[parts[j]].status == 0) {\n        releaseCommitment(parts[j]);\n      }\n    }\n  }\n\n  function cancelCommitments(string _commitments) internal {\n    var s = _commitments.toSlice();\n    var delim = \",\".toSlice();\n    uint[] memory parts = new uint[](s.count(delim) + 1);\n\n    for (uint i = 0; i < parts.length; i++) {\n      parts[i] = stringToUint(s.split(delim).toString());\n    }\n\n    uint arrayLength = parts.length;\n\n    for (uint j = 0; j < arrayLength; j++) {\n      if (commitments[parts[j]].status == 0) {\n        cancelCommitment(parts[j]);\n      }\n    }\n  }\n\n  function stringToUint(string s) constant returns (uint result) {\n      bytes memory b = bytes(s);\n      uint i;\n      result = 0;\n      for (i = 0; i < b.length; i++) {\n          uint c = uint(b[i]);\n          if (c >= 48 && c <= 57) {\n              result = result * 10 + (c - 48);\n          }\n      }\n  }\n\n  function getAllCommitments() internal returns (string) {\n    uint arrayLength = commitments.length;\n\n    string memory result = \"0\";\n    for (uint8 i = 0; i < arrayLength; i++) {\n      result = append(result, \",\", i);\n    }\n\n    return result;\n  }\n\n  function append(string a, string b, uint8 c) internal pure returns (string) {\n      return string(abi.encodePacked(a, b, c));\n\n  }\n}\n",
  "sourcePath": "/Users/adrian/Cloud Drives/Dropbox/Dev/porthos/solidity/contracts/PorthosContract.sol",
  "compiler": {
    "name": "solc",
    "version": "0.4.24+commit.e67f0147.Emscripten.clang"
  },
  "schemaVersion": "2.0.1",
  "updatedAt": "2018-10-07T09:07:35.599Z"
}