{
  "contractName": "T2",
  "abi": [
    {
      "constant": true,
      "inputs": [
        {
          "name": "_registry",
          "type": "string"
        },
        {
          "name": "_address",
          "type": "address"
        }
      ],
      "name": "fetchBalance",
      "outputs": [
        {
          "name": "",
          "type": "uint256"
        }
      ],
      "payable": false,
      "stateMutability": "view",
      "type": "function"
    },
    {
      "constant": false,
      "inputs": [
        {
          "name": "assetType",
          "type": "string"
        },
        {
          "name": "_registry",
          "type": "address"
        }
      ],
      "name": "addAssetRegister",
      "outputs": [],
      "payable": false,
      "stateMutability": "nonpayable",
      "type": "function"
    },
    {
      "constant": true,
      "inputs": [],
      "name": "getContractStatus",
      "outputs": [
        {
          "name": "",
          "type": "uint256"
        }
      ],
      "payable": false,
      "stateMutability": "view",
      "type": "function"
    },
    {
      "constant": false,
      "inputs": [
        {
          "name": "assetType",
          "type": "string"
        },
        {
          "name": "recipient",
          "type": "address"
        }
      ],
      "name": "revokeAllAssets",
      "outputs": [],
      "payable": false,
      "stateMutability": "nonpayable",
      "type": "function"
    },
    {
      "constant": true,
      "inputs": [
        {
          "name": "_commitmentId",
          "type": "uint256"
        }
      ],
      "name": "fetchCommitment",
      "outputs": [
        {
          "name": "",
          "type": "string"
        },
        {
          "name": "",
          "type": "uint256"
        },
        {
          "name": "",
          "type": "address"
        },
        {
          "name": "",
          "type": "address"
        },
        {
          "name": "",
          "type": "uint256"
        }
      ],
      "payable": false,
      "stateMutability": "view",
      "type": "function"
    },
    {
      "constant": false,
      "inputs": [
        {
          "name": "assetType",
          "type": "string"
        },
        {
          "name": "quantity",
          "type": "uint256"
        },
        {
          "name": "recipient",
          "type": "address"
        }
      ],
      "name": "issueAsset",
      "outputs": [],
      "payable": false,
      "stateMutability": "nonpayable",
      "type": "function"
    },
    {
      "constant": false,
      "inputs": [
        {
          "name": "_message",
          "type": "string"
        }
      ],
      "name": "fireEvent",
      "outputs": [],
      "payable": false,
      "stateMutability": "nonpayable",
      "type": "function"
    },
    {
      "inputs": [
        {
          "name": "_alice",
          "type": "address"
        },
        {
          "name": "_bob",
          "type": "address"
        },
        {
          "name": "_charlie",
          "type": "address"
        },
        {
          "name": "_notary",
          "type": "address"
        }
      ],
      "payable": false,
      "stateMutability": "nonpayable",
      "type": "constructor"
    },
    {
      "constant": false,
      "inputs": [
        {
          "name": "_assetType",
          "type": "string"
        },
        {
          "name": "_quantity",
          "type": "uint256"
        },
        {
          "name": "_recipient",
          "type": "address"
        }
      ],
      "name": "c3_commit",
      "outputs": [],
      "payable": false,
      "stateMutability": "nonpayable",
      "type": "function"
    },
    {
      "constant": false,
      "inputs": [],
      "name": "c3_timeout",
      "outputs": [],
      "payable": false,
      "stateMutability": "nonpayable",
      "type": "function"
    },
    {
      "constant": false,
      "inputs": [
        {
          "name": "_assetType",
          "type": "string"
        },
        {
          "name": "_quantity",
          "type": "uint256"
        },
        {
          "name": "_recipient",
          "type": "address"
        }
      ],
      "name": "c1_commit",
      "outputs": [],
      "payable": false,
      "stateMutability": "nonpayable",
      "type": "function"
    },
    {
      "constant": false,
      "inputs": [],
      "name": "c1_timeout",
      "outputs": [],
      "payable": false,
      "stateMutability": "nonpayable",
      "type": "function"
    },
    {
      "constant": false,
      "inputs": [
        {
          "name": "_assetType",
          "type": "string"
        },
        {
          "name": "_quantity",
          "type": "uint256"
        },
        {
          "name": "_recipient",
          "type": "address"
        }
      ],
      "name": "c2_commit",
      "outputs": [],
      "payable": false,
      "stateMutability": "nonpayable",
      "type": "function"
    },
    {
      "constant": false,
      "inputs": [],
      "name": "c2_timeout",
      "outputs": [],
      "payable": false,
      "stateMutability": "nonpayable",
      "type": "function"
    }
  ],
  "bytecode": "0x608060405260006003553480156200001657600080fd5b5060405160808062003b538339810180604052810190808051906020019092919080519060200190929190805190602001909291908051906020019092919050505033600560006101000a81548173ffffffffffffffffffffffffffffffffffffffff021916908373ffffffffffffffffffffffffffffffffffffffff160217905550620001476040805190810160405280600381526020017f455552000000000000000000000000000000000000000000000000000000000081525033620000de6200075f565b808273ffffffffffffffffffffffffffffffffffffffff1673ffffffffffffffffffffffffffffffffffffffff168152602001915050604051809103906000f08015801562000131573d6000803e3d6000fd5b5062000506640100000000026401000000009004565b620001f56040805190810160405280600381526020017f4742500000000000000000000000000000000000000000000000000000000000815250336200018c6200075f565b808273ffffffffffffffffffffffffffffffffffffffff1673ffffffffffffffffffffffffffffffffffffffff168152602001915050604051809103906000f080158015620001df573d6000803e3d6000fd5b5062000506640100000000026401000000009004565b83600760006101000a81548173ffffffffffffffffffffffffffffffffffffffff021916908373ffffffffffffffffffffffffffffffffffffffff16021790555082600860006101000a81548173ffffffffffffffffffffffffffffffffffffffff021916908373ffffffffffffffffffffffffffffffffffffffff16021790555081600960006101000a81548173ffffffffffffffffffffffffffffffffffffffff021916908373ffffffffffffffffffffffffffffffffffffffff16021790555080600660006101000a81548173ffffffffffffffffffffffffffffffffffffffff021916908373ffffffffffffffffffffffffffffffffffffffff160217905550620003146005620005b6640100000000026401000000009004565b60008060405180807f73656d4c656674310000000000000000000000000000000000000000000000008152506008019050908152602001604051809103902060006101000a81548160ff02191690831515021790555060008060405180807f73656d52696768743100000000000000000000000000000000000000000000008152506009019050908152602001604051809103902060006101000a81548160ff0219169083151502179055506200040f6040805190810160405280600b81526020017f7374617274696e67206331000000000000000000000000000000000000000000815250620005c0640100000000026401000000009004565b6200045e6040805190810160405280600281526020017f6331000000000000000000000000000000000000000000000000000000000000815250620006d6640100000000026401000000009004565b620004ad6040805190810160405280600b81526020017f7374617274696e67206332000000000000000000000000000000000000000000815250620005c0640100000000026401000000009004565b620004fc6040805190810160405280600281526020017f6332000000000000000000000000000000000000000000000000000000000000815250620006d6640100000000026401000000009004565b5050505062000770565b806002836040518082805190602001908083835b6020831015156200054157805182526020820191506020810190506020830392506200051a565b6001836020036101000a038019825116818451168082178552505050505050905001915050908152602001604051809103902060006101000a81548173ffffffffffffffffffffffffffffffffffffffff021916908373ffffffffffffffffffffffffffffffffffffffff1602179055505050565b8060038190555050565b600660009054906101000a900473ffffffffffffffffffffffffffffffffffffffff1673ffffffffffffffffffffffffffffffffffffffff16636b46e3bc826040518263ffffffff167c01000000000000000000000000000000000000000000000000000000000281526004018080602001828103825283818151815260200191508051906020019080838360005b838110156200066c5780820151818401526020810190506200064f565b50505050905090810190601f1680156200069a5780820380516001836020036101000a031916815260200191505b5092505050600060405180830381600087803b158015620006ba57600080fd5b505af1158015620006cf573d6000803e3d6000fd5b5050505050565b600180826040518082805190602001908083835b602083101515620007115780518252602082019150602081019050602083039250620006ea565b6001836020036101000a038019825116818451168082178552505050505050905001915050908152602001604051809103902060006101000a81548160ff021916908360ff16021790555050565b604051610742806200341183390190565b612c9180620007806000396000f3006080604052600436106100c5576000357c0100000000000000000000000000000000000000000000000000000000900463ffffffff16806317206e67146100ca5780632bd76092146100e1578063671ad61c1461017457806371c35e511461020757806390f267501461029a578063ab3eda65146102b1578063aeca49e51461034e578063bf0e3977146103d7578063c032846b146103ee578063cdb8544b14610419578063e3b91797146104a2578063e4c07be2146105bc578063e7847d131461064f575b600080fd5b3480156100d657600080fd5b506100df6106b8565b005b3480156100ed57600080fd5b50610172600480360381019080803590602001908201803590602001908080601f016020809104026020016040519081016040528093929190818152602001838380828437820191505050505050919291929080359060200190929190803573ffffffffffffffffffffffffffffffffffffffff1690602001909291905050506107b9565b005b34801561018057600080fd5b50610205600480360381019080803590602001908201803590602001908080601f016020809104026020016040519081016040528093929190818152602001838380828437820191505050505050919291929080359060200190929190803573ffffffffffffffffffffffffffffffffffffffff1690602001909291905050506109da565b005b34801561021357600080fd5b50610298600480360381019080803590602001908201803590602001908080601f016020809104026020016040519081016040528093929190818152602001838380828437820191505050505050919291929080359060200190929190803573ffffffffffffffffffffffffffffffffffffffff169060200190929190505050610bac565b005b3480156102a657600080fd5b506102af610e0b565b005b3480156102bd57600080fd5b50610338600480360381019080803590602001908201803590602001908080601f0160208091040260200160405190810160405280939291908181526020018383808284378201915050505050509192919290803573ffffffffffffffffffffffffffffffffffffffff169060200190929190505050610ebd565b6040518082815260200191505060405180910390f35b34801561035a57600080fd5b506103d5600480360381019080803590602001908201803590602001908080601f0160208091040260200160405190810160405280939291908181526020018383808284378201915050505050509192919290803573ffffffffffffffffffffffffffffffffffffffff169060200190929190505050611028565b005b3480156103e357600080fd5b506103ec6110d6565b005b3480156103fa57600080fd5b506104036111d7565b6040518082815260200191505060405180910390f35b34801561042557600080fd5b506104a0600480360381019080803590602001908201803590602001908080601f0160208091040260200160405190810160405280939291908181526020018383808284378201915050505050509192919290803573ffffffffffffffffffffffffffffffffffffffff1690602001909291905050506111e1565b005b3480156104ae57600080fd5b506104cd60048036038101908080359060200190929190505050611323565b60405180806020018681526020018573ffffffffffffffffffffffffffffffffffffffff1673ffffffffffffffffffffffffffffffffffffffff1681526020018473ffffffffffffffffffffffffffffffffffffffff1673ffffffffffffffffffffffffffffffffffffffff168152602001838152602001828103825287818151815260200191508051906020019080838360005b8381101561057d578082015181840152602081019050610562565b50505050905090810190601f1680156105aa5780820380516001836020036101000a031916815260200191505b50965050505050505060405180910390f35b3480156105c857600080fd5b5061064d600480360381019080803590602001908201803590602001908080601f016020809104026020016040519081016040528093929190818152602001838380828437820191505050505050919291929080359060200190929190803573ffffffffffffffffffffffffffffffffffffffff1690602001909291905050506114be565b005b34801561065b57600080fd5b506106b6600480360381019080803590602001908201803590602001908080601f0160208091040260200160405190810160405280939291908181526020018383808284378201915050505050509192919290505050611609565b005b60c84310156106c6576107b7565b6107046040805190810160405280600281526020017f633200000000000000000000000000000000000000000000000000000000000081525061171a565b151561070f576107b7565b61071960096117a1565b6107576040805190810160405280600281526020017f63320000000000000000000000000000000000000000000000000000000000008152506117ab565b6001600060405180807f73656d52696768743100000000000000000000000000000000000000000000008152506009019050908152602001604051809103902060006101000a81548160ff0219169083151502179055506107b6611833565b5b565b600760009054906101000a900473ffffffffffffffffffffffffffffffffffffffff1673ffffffffffffffffffffffffffffffffffffffff163373ffffffffffffffffffffffffffffffffffffffff16141515610815576109d5565b600860009054906101000a900473ffffffffffffffffffffffffffffffffffffffff1673ffffffffffffffffffffffffffffffffffffffff168173ffffffffffffffffffffffffffffffffffffffff16141515610871576109d5565b6108af6040805190810160405280600281526020017f633200000000000000000000000000000000000000000000000000000000000081525061171a565b15156108ba576109d5565b61092d60c060405190810160405280602060405190810160405280600081525081526020013373ffffffffffffffffffffffffffffffffffffffff1681526020018373ffffffffffffffffffffffffffffffffffffffff168152602001858152602001848152602001600081525061196a565b61093760086117a1565b6109756040805190810160405280600281526020017f63320000000000000000000000000000000000000000000000000000000000008152506117ab565b6001600060405180807f73656d52696768743100000000000000000000000000000000000000000000008152506009019050908152602001604051809103902060006101000a81548160ff0219169083151502179055506109d4611833565b5b505050565b600960009054906101000a900473ffffffffffffffffffffffffffffffffffffffff1673ffffffffffffffffffffffffffffffffffffffff163373ffffffffffffffffffffffffffffffffffffffff16141515610a3657610ba7565b600860009054906101000a900473ffffffffffffffffffffffffffffffffffffffff1673ffffffffffffffffffffffffffffffffffffffff168173ffffffffffffffffffffffffffffffffffffffff16141515610a9257610ba7565b610ad06040805190810160405280600281526020017f633300000000000000000000000000000000000000000000000000000000000081525061171a565b1515610adb57610ba7565b610b4e60c060405190810160405280602060405190810160405280600081525081526020013373ffffffffffffffffffffffffffffffffffffffff1681526020018373ffffffffffffffffffffffffffffffffffffffff168152602001858152602001848152602001600081525061196a565b610b5860036117a1565b610b966040805190810160405280600281526020017f63330000000000000000000000000000000000000000000000000000000000008152506117ab565b610ba6610ba1611c00565b611d3a565b5b505050565b600860009054906101000a900473ffffffffffffffffffffffffffffffffffffffff1673ffffffffffffffffffffffffffffffffffffffff163373ffffffffffffffffffffffffffffffffffffffff16141515610c0857610e06565b600760009054906101000a900473ffffffffffffffffffffffffffffffffffffffff1673ffffffffffffffffffffffffffffffffffffffff168173ffffffffffffffffffffffffffffffffffffffff16141515610c6457610e06565b610ca26040805190810160405280600281526020017f633100000000000000000000000000000000000000000000000000000000000081525061171a565b1515610cad57610e06565b610ceb6040805190810160405280601581526020017f433120436f6d6d697420696e2070726f67726573730000000000000000000000815250611609565b610d5e60c060405190810160405280602060405190810160405280600081525081526020013373ffffffffffffffffffffffffffffffffffffffff1681526020018373ffffffffffffffffffffffffffffffffffffffff168152602001858152602001848152602001600081525061196a565b610d6860066117a1565b610da66040805190810160405280600281526020017f63310000000000000000000000000000000000000000000000000000000000008152506117ab565b6001600060405180807f73656d4c656674310000000000000000000000000000000000000000000000008152506008019050908152602001604051809103902060006101000a81548160ff021916908315150217905550610e05611833565b5b505050565b6002431015610e1957610ebb565b610e576040805190810160405280600281526020017f633300000000000000000000000000000000000000000000000000000000000081525061171a565b1515610e6257610ebb565b610e6c60046117a1565b610eaa6040805190810160405280600281526020017f63330000000000000000000000000000000000000000000000000000000000008152506117ab565b610eba610eb5611c00565b611ec5565b5b565b60006002836040518082805190602001908083835b602083101515610ef75780518252602082019150602081019050602083039250610ed2565b6001836020036101000a038019825116818451168082178552505050505050905001915050908152602001604051809103902060009054906101000a900473ffffffffffffffffffffffffffffffffffffffff1673ffffffffffffffffffffffffffffffffffffffff1663f8b2cb4f836040518263ffffffff167c0100000000000000000000000000000000000000000000000000000000028152600401808273ffffffffffffffffffffffffffffffffffffffff1673ffffffffffffffffffffffffffffffffffffffff168152602001915050602060405180830381600087803b158015610fe557600080fd5b505af1158015610ff9573d6000803e3d6000fd5b505050506040513d602081101561100f57600080fd5b8101908080519060200190929190505050905092915050565b806002836040518082805190602001908083835b602083101515611061578051825260208201915060208101905060208303925061103c565b6001836020036101000a038019825116818451168082178552505050505050905001915050908152602001604051809103902060006101000a81548173ffffffffffffffffffffffffffffffffffffffff021916908373ffffffffffffffffffffffffffffffffffffffff1602179055505050565b60c84310156110e4576111d5565b6111226040805190810160405280600281526020017f633100000000000000000000000000000000000000000000000000000000000081525061171a565b151561112d576111d5565b61113760076117a1565b6111756040805190810160405280600281526020017f63310000000000000000000000000000000000000000000000000000000000008152506117ab565b6001600060405180807f73656d4c656674310000000000000000000000000000000000000000000000008152506008019050908152602001604051809103902060006101000a81548160ff0219169083151502179055506111d4611833565b5b565b6000600354905090565b6002826040518082805190602001908083835b60208310151561121957805182526020820191506020810190506020830392506111f4565b6001836020036101000a038019825116818451168082178552505050505050905001915050908152602001604051809103902060009054906101000a900473ffffffffffffffffffffffffffffffffffffffff1673ffffffffffffffffffffffffffffffffffffffff166331e0e746826040518263ffffffff167c0100000000000000000000000000000000000000000000000000000000028152600401808273ffffffffffffffffffffffffffffffffffffffff1673ffffffffffffffffffffffffffffffffffffffff168152602001915050600060405180830381600087803b15801561130757600080fd5b505af115801561131b573d6000803e3d6000fd5b505050505050565b606060008060008060048681548110151561133a57fe5b906000526020600020906006020160030160048781548110151561135a57fe5b90600052602060002090600602016004015460048881548110151561137b57fe5b906000526020600020906006020160010160009054906101000a900473ffffffffffffffffffffffffffffffffffffffff166004898154811015156113bc57fe5b906000526020600020906006020160020160009054906101000a900473ffffffffffffffffffffffffffffffffffffffff1660048a8154811015156113fd57fe5b906000526020600020906006020160050154848054600181600116156101000203166002900480601f0160208091040260200160405190810160405280929190818152602001828054600181600116156101000203166002900480156114a45780601f10611479576101008083540402835291602001916114a4565b820191906000526020600020905b81548152906001019060200180831161148757829003601f168201915b505050505094509450945094509450945091939590929450565b6002836040518082805190602001908083835b6020831015156114f657805182526020820191506020810190506020830392506114d1565b6001836020036101000a038019825116818451168082178552505050505050905001915050908152602001604051809103902060009054906101000a900473ffffffffffffffffffffffffffffffffffffffff1673ffffffffffffffffffffffffffffffffffffffff16634d667cf482846040518363ffffffff167c0100000000000000000000000000000000000000000000000000000000028152600401808373ffffffffffffffffffffffffffffffffffffffff1673ffffffffffffffffffffffffffffffffffffffff16815260200182815260200192505050600060405180830381600087803b1580156115ec57600080fd5b505af1158015611600573d6000803e3d6000fd5b50505050505050565b600660009054906101000a900473ffffffffffffffffffffffffffffffffffffffff1673ffffffffffffffffffffffffffffffffffffffff16636b46e3bc826040518263ffffffff167c01000000000000000000000000000000000000000000000000000000000281526004018080602001828103825283818151815260200191508051906020019080838360005b838110156116b3578082015181840152602081019050611698565b50505050905090810190601f1680156116e05780820380516001836020036101000a031916815260200191505b5092505050600060405180830381600087803b1580156116ff57600080fd5b505af1158015611713573d6000803e3d6000fd5b5050505050565b6000600180836040518082805190602001908083835b6020831015156117555780518252602082019150602081019050602083039250611730565b6001836020036101000a038019825116818451168082178552505050505050905001915050908152602001604051809103902060009054906101000a900460ff1660ff16149050919050565b8060038190555050565b60026001826040518082805190602001908083835b6020831015156117e557805182526020820191506020810190506020830392506117c0565b6001836020036101000a038019825116818451168082178552505050505050905001915050908152602001604051809103902060006101000a81548160ff021916908360ff16021790555050565b600060405180807f73656d4c656674310000000000000000000000000000000000000000000000008152506008019050908152602001604051809103902060009054906101000a900460ff16151561188a57611968565b600060405180807f73656d52696768743100000000000000000000000000000000000000000000008152506009019050908152602001604051809103902060009054906101000a900460ff1615156118e157611968565b6118eb60026117a1565b6119296040805190810160405280600581526020017f7265616479000000000000000000000000000000000000000000000000000000815250611609565b6119676040805190810160405280600281526020017f6333000000000000000000000000000000000000000000000000000000000000815250612050565b5b565b600281606001516040518082805190602001908083835b6020831015156119a65780518252602082019150602081019050602083039250611981565b6001836020036101000a038019825116818451168082178552505050505050905001915050908152602001604051809103902060009054906101000a900473ffffffffffffffffffffffffffffffffffffffff1673ffffffffffffffffffffffffffffffffffffffff1663beabacc882602001513084608001516040518463ffffffff167c0100000000000000000000000000000000000000000000000000000000028152600401808473ffffffffffffffffffffffffffffffffffffffff1673ffffffffffffffffffffffffffffffffffffffff1681526020018373ffffffffffffffffffffffffffffffffffffffff1673ffffffffffffffffffffffffffffffffffffffff1681526020018281526020019350505050600060405180830381600087803b158015611ad857600080fd5b505af1158015611aec573d6000803e3d6000fd5b50505050600481908060018154018082558091505090600182039060005260206000209060060201600090919290919091506000820151816000019080519060200190611b3a929190612ba6565b5060208201518160010160006101000a81548173ffffffffffffffffffffffffffffffffffffffff021916908373ffffffffffffffffffffffffffffffffffffffff16021790555060408201518160020160006101000a81548173ffffffffffffffffffffffffffffffffffffffff021916908373ffffffffffffffffffffffffffffffffffffffff1602179055506060820151816003019080519060200190611be5929190612ba6565b506080820151816004015560a0820151816005015550505050565b6060600060606000600480549050925060206040519081016040528060008152509150600090505b82811015611d315781611c3a826120d7565b6040516020018083805190602001908083835b602083101515611c725780518252602082019150602081019050602083039250611c4d565b6001836020036101000a038019825116818451168082178552505050505050905001807f2c0000000000000000000000000000000000000000000000000000000000000081525060010182805190602001908083835b602083101515611ced5780518252602082019150602081019050602083039250611cc8565b6001836020036101000a0380198251168184511680821785525050505050509050019250505060405160208183030381529060405291508080600101915050611c28565b81935050505090565b611d42612c26565b611d4a612c26565b60606000806000611d5a876122b4565b9550611d9a6040805190810160405280600181526020017f2c000000000000000000000000000000000000000000000000000000000000008152506122b4565b94506001611db186886122e290919063ffffffff16565b01604051908082528060200260200182016040528015611de05781602001602082028038833980820191505090505b509350600092505b8351831015611e3d57611e14611e0f611e0a878961235990919063ffffffff16565b612373565b6123d5565b8484815181101515611e2257fe5b90602001906020020181815250508280600101935050611de8565b83519150600090505b81811015611ebc57600060048583815181101515611e6057fe5b90602001906020020151815481101515611e7657fe5b9060005260206000209060060201600501541415611eaf57611eae8482815181101515611e9f57fe5b906020019060200201516124a7565b5b8080600101915050611e46565b50505050505050565b611ecd612c26565b611ed5612c26565b60606000806000611ee5876122b4565b9550611f256040805190810160405280600181526020017f2c000000000000000000000000000000000000000000000000000000000000008152506122b4565b94506001611f3c86886122e290919063ffffffff16565b01604051908082528060200260200182016040528015611f6b5781602001602082028038833980820191505090505b509350600092505b8351831015611fc857611f9f611f9a611f95878961235990919063ffffffff16565b612373565b6123d5565b8484815181101515611fad57fe5b90602001906020020181815250508280600101935050611f73565b83519150600090505b8181101561204757600060048583815181101515611feb57fe5b9060200190602002015181548110151561200157fe5b906000526020600020906006020160050154141561203a57612039848281518110151561202a57fe5b9060200190602002015161273f565b5b8080600101915050611fd1565b50505050505050565b600180826040518082805190602001908083835b6020831015156120895780518252602082019150602081019050602083039250612064565b6001836020036101000a038019825116818451168082178552505050505050905001915050908152602001604051809103902060006101000a81548160ff021916908360ff16021790555050565b6060600060606000806060600060649550856040519080825280601f01601f19166020018201604052801561211b5781602001602082028038833980820191505090505b509450600093505b6000881415156121ba57600a8881151561213957fe5b069250600a8881151561214857fe5b049750826030017f010000000000000000000000000000000000000000000000000000000000000002858580600101965081518110151561218557fe5b9060200101907effffffffffffffffffffffffffffffffffffffffffffffffffffffffffffff1916908160001a905350612123565b836040519080825280601f01601f1916602001820160405280156121ed5781602001602082028038833980820191505090505b509150600090505b838110156122a6578460018286030381518110151561221057fe5b9060200101517f010000000000000000000000000000000000000000000000000000000000000090047f010000000000000000000000000000000000000000000000000000000000000002828281518110151561226957fe5b9060200101907effffffffffffffffffffffffffffffffffffffffffffffffffffffffffffff1916908160001a90535080806001019150506121f5565b819650505050505050919050565b6122bc612c26565b600060208301905060408051908101604052808451815260200182815250915050919050565b600080826000015161230685600001518660200151866000015187602001516129d7565b0190505b836000015184602001510181111515612352578180600101925050826000015161234a8560200151830386600001510383866000015187602001516129d7565b01905061230a565b5092915050565b612361612c26565b61236c838383612abd565b5092915050565b606080600083600001516040519080825280601f01601f1916602001820160405280156123af5781602001602082028038833980820191505090505b5091506020820190506123cb8185602001518660000151612b5b565b8192505050919050565b6000606060008084925060009350600091505b825182101561249f5782828151811015156123ff57fe5b9060200101517f010000000000000000000000000000000000000000000000000000000000000090047f0100000000000000000000000000000000000000000000000000000000000000027f01000000000000000000000000000000000000000000000000000000000000009004905060308110158015612481575060398111155b156124925760308103600a85020193505b81806001019250506123e8565b505050919050565b60006004828154811015156124b857fe5b906000526020600020906006020190506000816005015414151561256a576040517f08c379a00000000000000000000000000000000000000000000000000000000081526004018080602001828103825260338152602001807f436f6d6d69746d656e7420737461747573206d757374206265204f70656e202881526020017f302920746f20616c6c6f772072656c656173650000000000000000000000000081525060400191505060405180910390fd5b60028160030160405180828054600181600116156101000203166002900480156125cb5780601f106125a95761010080835404028352918201916125cb565b820191906000526020600020905b8154815290600101906020018083116125b7575b5050915050908152602001604051809103902060009054906101000a900473ffffffffffffffffffffffffffffffffffffffff1673ffffffffffffffffffffffffffffffffffffffff1663beabacc8308360020160009054906101000a900473ffffffffffffffffffffffffffffffffffffffff1684600401546040518463ffffffff167c0100000000000000000000000000000000000000000000000000000000028152600401808473ffffffffffffffffffffffffffffffffffffffff1673ffffffffffffffffffffffffffffffffffffffff1681526020018373ffffffffffffffffffffffffffffffffffffffff1673ffffffffffffffffffffffffffffffffffffffff1681526020018281526020019350505050600060405180830381600087803b1580156126fd57600080fd5b505af1158015612711573d6000803e3d6000fd5b50505050600160048381548110151561272657fe5b9060005260206000209060060201600501819055505050565b600060048281548110151561275057fe5b9060005260206000209060060201905060008160050154141515612802576040517f08c379a00000000000000000000000000000000000000000000000000000000081526004018080602001828103825260328152602001807f436f6d6d69746d656e7420737461747573206d757374206265204f70656e202881526020017f302920746f20616c6c6f772063616e63656c000000000000000000000000000081525060400191505060405180910390fd5b60028160030160405180828054600181600116156101000203166002900480156128635780601f10612841576101008083540402835291820191612863565b820191906000526020600020905b81548152906001019060200180831161284f575b5050915050908152602001604051809103902060009054906101000a900473ffffffffffffffffffffffffffffffffffffffff1673ffffffffffffffffffffffffffffffffffffffff1663beabacc8308360010160009054906101000a900473ffffffffffffffffffffffffffffffffffffffff1684600401546040518463ffffffff167c0100000000000000000000000000000000000000000000000000000000028152600401808473ffffffffffffffffffffffffffffffffffffffff1673ffffffffffffffffffffffffffffffffffffffff1681526020018373ffffffffffffffffffffffffffffffffffffffff1673ffffffffffffffffffffffffffffffffffffffff1681526020018281526020019350505050600060405180830381600087803b15801561299557600080fd5b505af11580156129a9573d6000803e3d6000fd5b5050505060026004838154811015156129be57fe5b9060005260206000209060060201600501819055505050565b60008060008060008060008060008b97508c8b111515612aa75760208b111515612a615760018b60200360080260020a03196001029550858a511694508a8d8d010393508588511692505b84600019168360001916141515612a59578388101515612a46578c8c019850612aad565b8780600101985050858851169250612a22565b879850612aad565b8a8a209150600096505b8a8d0387111515612aa6578a88209050806000191682600019161415612a9357879850612aad565b6001880197508680600101975050612a6b565b5b8c8c0198505b5050505050505050949350505050565b612ac5612c26565b6000612ae385600001518660200151866000015187602001516129d7565b90508460200151836020018181525050846020015181038360000181815250508460000151856020015101811415612b25576000856000018181525050612b50565b8360000151836000015101856000018181510391508181525050836000015181018560200181815250505b829150509392505050565b60005b602082101515612b835782518452602084019350602083019250602082039150612b5e565b6001826020036101000a0390508019835116818551168181178652505050505050565b828054600181600116156101000203166002900490600052602060002090601f016020900481019282601f10612be757805160ff1916838001178555612c15565b82800160010185558215612c15579182015b82811115612c14578251825591602001919060010190612bf9565b5b509050612c229190612c40565b5090565b604080519081016040528060008152602001600081525090565b612c6291905b80821115612c5e576000816000905550600101612c46565b5090565b905600a165627a7a723058201cf6076babdca383b777c7817db964b58f554310f6bb27cdf26186c8e80385760029608060405234801561001057600080fd5b5060405160208061074283398101806040528101908080519060200190929190505050806000806101000a81548173ffffffffffffffffffffffffffffffffffffffff021916908373ffffffffffffffffffffffffffffffffffffffff160217905550506106bf806100836000396000f300608060405260043610610062576000357c0100000000000000000000000000000000000000000000000000000000900463ffffffff16806331e0e746146100675780634d667cf4146100aa578063beabacc8146100f7578063f8b2cb4f14610164575b600080fd5b34801561007357600080fd5b506100a8600480360381019080803573ffffffffffffffffffffffffffffffffffffffff1690602001909291905050506101bb565b005b3480156100b657600080fd5b506100f5600480360381019080803573ffffffffffffffffffffffffffffffffffffffff1690602001909291908035906020019092919050505061029e565b005b34801561010357600080fd5b50610162600480360381019080803573ffffffffffffffffffffffffffffffffffffffff169060200190929190803573ffffffffffffffffffffffffffffffffffffffff169060200190929190803590602001909291905050506103c9565b005b34801561017057600080fd5b506101a5600480360381019080803573ffffffffffffffffffffffffffffffffffffffff16906020019092919050505061064a565b6040518082815260200191505060405180910390f35b6000600160008373ffffffffffffffffffffffffffffffffffffffff1673ffffffffffffffffffffffffffffffffffffffff168152602001908152602001600020819055507f34ae7779d4c90619282b3368b4dd0b74822ca4317934b4acd6e520a3835c15f981600080600080604051808673ffffffffffffffffffffffffffffffffffffffff1673ffffffffffffffffffffffffffffffffffffffff1681526020018573ffffffffffffffffffffffffffffffffffffffff1681526020018481526020018381526020018281526020019550505050505060405180910390a150565b80600160008473ffffffffffffffffffffffffffffffffffffffff1673ffffffffffffffffffffffffffffffffffffffff168152602001908152602001600020600082825401925050819055507f34ae7779d4c90619282b3368b4dd0b74822ca4317934b4acd6e520a3835c15f9600083836000600160008873ffffffffffffffffffffffffffffffffffffffff1673ffffffffffffffffffffffffffffffffffffffff16815260200190815260200160002054604051808673ffffffffffffffffffffffffffffffffffffffff1681526020018573ffffffffffffffffffffffffffffffffffffffff1673ffffffffffffffffffffffffffffffffffffffff1681526020018481526020018381526020018281526020019550505050505060405180910390a15050565b80600160008573ffffffffffffffffffffffffffffffffffffffff1673ffffffffffffffffffffffffffffffffffffffff16815260200190815260200160002054101561047e576040517f08c379a00000000000000000000000000000000000000000000000000000000081526004018080602001828103825260128152602001807f4e6f7420656e6f7567682062616c616e6365000000000000000000000000000081525060200191505060405180910390fd5b80600160008573ffffffffffffffffffffffffffffffffffffffff1673ffffffffffffffffffffffffffffffffffffffff1681526020019081526020016000206000828254039250508190555080600160008473ffffffffffffffffffffffffffffffffffffffff1673ffffffffffffffffffffffffffffffffffffffff168152602001908152602001600020600082825401925050819055507f34ae7779d4c90619282b3368b4dd0b74822ca4317934b4acd6e520a3835c15f9838383600160008873ffffffffffffffffffffffffffffffffffffffff1673ffffffffffffffffffffffffffffffffffffffff16815260200190815260200160002054600160008873ffffffffffffffffffffffffffffffffffffffff1673ffffffffffffffffffffffffffffffffffffffff16815260200190815260200160002054604051808673ffffffffffffffffffffffffffffffffffffffff1673ffffffffffffffffffffffffffffffffffffffff1681526020018573ffffffffffffffffffffffffffffffffffffffff1673ffffffffffffffffffffffffffffffffffffffff1681526020018481526020018381526020018281526020019550505050505060405180910390a1505050565b6000600160008373ffffffffffffffffffffffffffffffffffffffff1673ffffffffffffffffffffffffffffffffffffffff1681526020019081526020016000205490509190505600a165627a7a723058209ae9ad24168ec84f22faa0fb5b6a49d758e5bb6df1077b78cdc1371046d1b2220029",
  "source": "pragma solidity ^0.4.24;\n\nimport \"./PorthosContract.sol\";\n\ncontract T2 is PorthosContract {\n  address alice;\n  address bob;\n  address charlie;\n\nconstructor(address _alice, address _bob, address _charlie, address _notary) public\n{\n  alice = _alice;\n  bob   = _bob;\n  charlie = _charlie;\n  notary = NotaryConnector(_notary);\n\n  setContractStatus(5);\n  semaphore[\"semLeft1\"] = false;\n  semaphore[\"semRight1\"] = false;\n  fireEvent(\"starting c1\");\n  openGate(\"c1\");\n  fireEvent(\"starting c2\");\n  openGate(\"c2\");\n}\n\n\nfunction continue_1() private\n{\n  if(!semaphore[\"semLeft1\"])\n    return;\n  if(!semaphore[\"semRight1\"])\n    return;\n  setContractStatus(2);\n  fireEvent(\"ready\");\n  openGate(\"c3\");\n}\n\nfunction c3_commit(string _assetType, uint _quantity, address _recipient) public\n{\n  if(msg.sender != charlie)\n    return;\n  if(_recipient != bob)\n    return;\n  if(!isGateOpen(\"c3\"))\n    return;\n  addCommitment(Commitment({tagId: \"\", sender: msg.sender, recipient: _recipient, assetType: _assetType, quantity: _quantity, status: 0}));\n  setContractStatus(3);\n  closeGate(\"c3\");\n  releaseCommitments(getAllCommitments());\n}\n\nfunction c3_timeout() public\n{\n  if(block.number < 2)\n    return;\n  if(!isGateOpen(\"c3\"))\n    return;\n  setContractStatus(4);\n  closeGate(\"c3\");\n  cancelCommitments(getAllCommitments());\n}\n\n\nfunction c1_commit(string _assetType, uint _quantity, address _recipient) public\n{\n  if(msg.sender != bob)\n    return;\n  if(_recipient != alice)\n    return;\n  if(!isGateOpen(\"c1\"))\n    return;\n  fireEvent(\"C1 Commit in progress\");\n  addCommitment(Commitment({tagId: \"\", sender: msg.sender, recipient: _recipient, assetType: _assetType, quantity: _quantity, status: 0}));\n  setContractStatus(6);\n  closeGate(\"c1\");\n  semaphore[\"semLeft1\"] = true;\n  continue_1();\n}\n\nfunction c1_timeout() public\n{\n  if(block.number < 200)\n    return;\n  if(!isGateOpen(\"c1\"))\n    return;\n  setContractStatus(7);\n  closeGate(\"c1\");\n  semaphore[\"semLeft1\"] = true;\n  continue_1();\n}\n\nfunction c2_commit(string _assetType, uint _quantity, address _recipient) public\n{\n  if(msg.sender != alice)\n    return;\n  if(_recipient != bob)\n    return;\n  if(!isGateOpen(\"c2\"))\n    return;\n  addCommitment(Commitment({tagId: \"\", sender: msg.sender, recipient: _recipient, assetType: _assetType, quantity: _quantity, status: 0}));\n  setContractStatus(8);\n  closeGate(\"c2\");\n  semaphore[\"semRight1\"] = true;\n  continue_1();\n}\n\nfunction c2_timeout() public\n{\n  if(block.number < 200)\n    return;\n  if(!isGateOpen(\"c2\"))\n    return;\n  setContractStatus(9);\n  closeGate(\"c2\");\n  semaphore[\"semRight1\"] = true;\n  continue_1();\n}\n\n}\n",
  "sourcePath": "/Users/adrian/Cloud Drives/Dropbox/Dev/porthos/solidity/contracts/T2.sol",
  "compiler": {
    "name": "solc",
    "version": "0.4.24+commit.e67f0147.Emscripten.clang"
  },
  "schemaVersion": "2.0.1",
  "updatedAt": "2018-10-11T07:47:36.169Z"
}