{
  "contractName": "T2",
  "abi": [
    {
      "constant": false,
      "inputs": [
        {
          "name": "assetType",
          "type": "string"
        }
      ],
      "name": "createAssetRegister",
      "outputs": [],
      "payable": false,
      "stateMutability": "nonpayable",
      "type": "function"
    },
    {
      "constant": true,
      "inputs": [
        {
          "name": "_registry",
          "type": "string"
        },
        {
          "name": "_address",
          "type": "address"
        }
      ],
      "name": "fetchBalance",
      "outputs": [
        {
          "name": "",
          "type": "uint256"
        }
      ],
      "payable": false,
      "stateMutability": "view",
      "type": "function"
    },
    {
      "constant": true,
      "inputs": [],
      "name": "getContractStatus",
      "outputs": [
        {
          "name": "",
          "type": "uint256"
        }
      ],
      "payable": false,
      "stateMutability": "view",
      "type": "function"
    },
    {
      "constant": true,
      "inputs": [
        {
          "name": "_commitmentId",
          "type": "uint256"
        }
      ],
      "name": "fetchCommitment",
      "outputs": [
        {
          "name": "",
          "type": "string"
        },
        {
          "name": "",
          "type": "uint256"
        },
        {
          "name": "",
          "type": "address"
        },
        {
          "name": "",
          "type": "address"
        },
        {
          "name": "",
          "type": "uint256"
        }
      ],
      "payable": false,
      "stateMutability": "view",
      "type": "function"
    },
    {
      "constant": false,
      "inputs": [
        {
          "name": "assetType",
          "type": "string"
        },
        {
          "name": "quantity",
          "type": "uint256"
        },
        {
          "name": "recipient",
          "type": "address"
        }
      ],
      "name": "issueAsset",
      "outputs": [],
      "payable": false,
      "stateMutability": "nonpayable",
      "type": "function"
    },
    {
      "inputs": [],
      "payable": false,
      "stateMutability": "nonpayable",
      "type": "constructor"
    },
    {
      "anonymous": false,
      "inputs": [
        {
          "indexed": false,
          "name": "message",
          "type": "string"
        }
      ],
      "name": "LogEvent",
      "type": "event"
    },
    {
      "constant": false,
      "inputs": [
        {
          "name": "_assetType",
          "type": "string"
        },
        {
          "name": "_quantity",
          "type": "uint256"
        },
        {
          "name": "_recipient",
          "type": "address"
        }
      ],
      "name": "c3_commit",
      "outputs": [],
      "payable": false,
      "stateMutability": "nonpayable",
      "type": "function"
    },
    {
      "constant": false,
      "inputs": [],
      "name": "c3_timeout",
      "outputs": [],
      "payable": false,
      "stateMutability": "nonpayable",
      "type": "function"
    },
    {
      "constant": false,
      "inputs": [
        {
          "name": "_assetType",
          "type": "string"
        },
        {
          "name": "_quantity",
          "type": "uint256"
        },
        {
          "name": "_recipient",
          "type": "address"
        }
      ],
      "name": "c1_commit",
      "outputs": [],
      "payable": false,
      "stateMutability": "nonpayable",
      "type": "function"
    },
    {
      "constant": false,
      "inputs": [],
      "name": "c1_timeout",
      "outputs": [],
      "payable": false,
      "stateMutability": "nonpayable",
      "type": "function"
    },
    {
      "constant": false,
      "inputs": [
        {
          "name": "_assetType",
          "type": "string"
        },
        {
          "name": "_quantity",
          "type": "uint256"
        },
        {
          "name": "_recipient",
          "type": "address"
        }
      ],
      "name": "c2_commit",
      "outputs": [],
      "payable": false,
      "stateMutability": "nonpayable",
      "type": "function"
    },
    {
      "constant": false,
      "inputs": [],
      "name": "c2_timeout",
      "outputs": [],
      "payable": false,
      "stateMutability": "nonpayable",
      "type": "function"
    }
  ],
  "bytecode": "0x6080604052600060035573f1c13a88cf28c4d06269a150dd8cdb2e3061d44f600660006101000a81548173ffffffffffffffffffffffffffffffffffffffff021916908373ffffffffffffffffffffffffffffffffffffffff160217905550734603bd7000aba82eab4aaea605df43a1e37ef2bb600760006101000a81548173ffffffffffffffffffffffffffffffffffffffff021916908373ffffffffffffffffffffffffffffffffffffffff16021790555073b9f62ffe791ff9fa9c51722e3b833bf51db290de600860006101000a81548173ffffffffffffffffffffffffffffffffffffffff021916908373ffffffffffffffffffffffffffffffffffffffff1602179055503480156200011557600080fd5b5033600560006101000a81548173ffffffffffffffffffffffffffffffffffffffff021916908373ffffffffffffffffffffffffffffffffffffffff16021790555062000172600562000392640100000000026401000000009004565b60008060405180807f73656d4c656674310000000000000000000000000000000000000000000000008152506008019050908152602001604051809103902060006101000a81548160ff02191690831515021790555060008060405180807f73656d52696768743100000000000000000000000000000000000000000000008152506009019050908152602001604051809103902060006101000a81548160ff0219169083151502179055507f0f9302c81771c0eee3c21199d1d5510ce78a68962d32a182bd71b8fb22a9ff1d60405180806020018281038252600b8152602001807f7374617274696e6720633100000000000000000000000000000000000000000081525060200191505060405180910390a1620002d56040805190810160405280600281526020017f63310000000000000000000000000000000000000000000000000000000000008152506200039c640100000000026401000000009004565b7f0f9302c81771c0eee3c21199d1d5510ce78a68962d32a182bd71b8fb22a9ff1d60405180806020018281038252600b8152602001807f7374617274696e6720633200000000000000000000000000000000000000000081525060200191505060405180910390a16200038c6040805190810160405280600281526020017f63320000000000000000000000000000000000000000000000000000000000008152506200039c640100000000026401000000009004565b62000425565b8060038190555050565b600180826040518082805190602001908083835b602083101515620003d75780518252602082019150602081019050602083039250620003b0565b6001836020036101000a038019825116818451168082178552505050505050905001915050908152602001604051809103902060006101000a81548160ff021916908360ff16021790555050565b61321580620004356000396000f3006080604052600436106100ae576000357c0100000000000000000000000000000000000000000000000000000000900463ffffffff168062accf3e146100b357806317206e671461011c5780632bd7609214610133578063671ad61c146101c657806371c35e511461025957806390f26750146102ec578063ab3eda6514610303578063bf0e3977146103a0578063c032846b146103b7578063e3b91797146103e2578063e4c07be2146104fc575b600080fd5b3480156100bf57600080fd5b5061011a600480360381019080803590602001908201803590602001908080601f016020809104026020016040519081016040528093929190818152602001838380828437820191505050505050919291929050505061058f565b005b34801561012857600080fd5b50610131610697565b005b34801561013f57600080fd5b506101c4600480360381019080803590602001908201803590602001908080601f016020809104026020016040519081016040528093929190818152602001838380828437820191505050505050919291929080359060200190929190803573ffffffffffffffffffffffffffffffffffffffff169060200190929190505050610798565b005b3480156101d257600080fd5b50610257600480360381019080803590602001908201803590602001908080601f016020809104026020016040519081016040528093929190818152602001838380828437820191505050505050919291929080359060200190929190803573ffffffffffffffffffffffffffffffffffffffff1690602001909291905050506109b9565b005b34801561026557600080fd5b506102ea600480360381019080803590602001908201803590602001908080601f016020809104026020016040519081016040528093929190818152602001838380828437820191505050505050919291929080359060200190929190803573ffffffffffffffffffffffffffffffffffffffff169060200190929190505050610b8b565b005b3480156102f857600080fd5b50610301610dac565b005b34801561030f57600080fd5b5061038a600480360381019080803590602001908201803590602001908080601f0160208091040260200160405190810160405280939291908181526020018383808284378201915050505050509192919290803573ffffffffffffffffffffffffffffffffffffffff169060200190929190505050610e5e565b6040518082815260200191505060405180910390f35b3480156103ac57600080fd5b506103b5610fc9565b005b3480156103c357600080fd5b506103cc6110ca565b6040518082815260200191505060405180910390f35b3480156103ee57600080fd5b5061040d600480360381019080803590602001909291905050506110d4565b60405180806020018681526020018573ffffffffffffffffffffffffffffffffffffffff1673ffffffffffffffffffffffffffffffffffffffff1681526020018473ffffffffffffffffffffffffffffffffffffffff1673ffffffffffffffffffffffffffffffffffffffff168152602001838152602001828103825287818151815260200191508051906020019080838360005b838110156104bd5780820151818401526020810190506104a2565b50505050905090810190601f1680156104ea5780820380516001836020036101000a031916815260200191505b50965050505050505060405180910390f35b34801561050857600080fd5b5061058d600480360381019080803590602001908201803590602001908080601f016020809104026020016040519081016040528093929190818152602001838380828437820191505050505050919291929080359060200190929190803573ffffffffffffffffffffffffffffffffffffffff16906020019092919050505061126f565b005b30610598612935565b808273ffffffffffffffffffffffffffffffffffffffff1673ffffffffffffffffffffffffffffffffffffffff168152602001915050604051809103906000f0801580156105ea573d6000803e3d6000fd5b506002826040518082805190602001908083835b60208310151561062357805182526020820191506020810190506020830392506105fe565b6001836020036101000a038019825116818451168082178552505050505050905001915050908152602001604051809103902060006101000a81548173ffffffffffffffffffffffffffffffffffffffff021916908373ffffffffffffffffffffffffffffffffffffffff16021790555050565b60c84310156106a557610796565b6106e36040805190810160405280600281526020017f633200000000000000000000000000000000000000000000000000000000000081525061147f565b15156106ee57610796565b6106f86009611506565b6107366040805190810160405280600281526020017f6332000000000000000000000000000000000000000000000000000000000000815250611510565b6001600060405180807f73656d52696768743100000000000000000000000000000000000000000000008152506009019050908152602001604051809103902060006101000a81548160ff021916908315150217905550610795611598565b5b565b600660009054906101000a900473ffffffffffffffffffffffffffffffffffffffff1673ffffffffffffffffffffffffffffffffffffffff163373ffffffffffffffffffffffffffffffffffffffff161415156107f4576109b4565b600760009054906101000a900473ffffffffffffffffffffffffffffffffffffffff1673ffffffffffffffffffffffffffffffffffffffff168173ffffffffffffffffffffffffffffffffffffffff16141515610850576109b4565b61088e6040805190810160405280600281526020017f633200000000000000000000000000000000000000000000000000000000000081525061147f565b1515610899576109b4565b61090c60c060405190810160405280602060405190810160405280600081525081526020013373ffffffffffffffffffffffffffffffffffffffff1681526020018373ffffffffffffffffffffffffffffffffffffffff16815260200185815260200184815260200160008152506116f9565b6109166008611506565b6109546040805190810160405280600281526020017f6332000000000000000000000000000000000000000000000000000000000000815250611510565b6001600060405180807f73656d52696768743100000000000000000000000000000000000000000000008152506009019050908152602001604051809103902060006101000a81548160ff0219169083151502179055506109b3611598565b5b505050565b600860009054906101000a900473ffffffffffffffffffffffffffffffffffffffff1673ffffffffffffffffffffffffffffffffffffffff163373ffffffffffffffffffffffffffffffffffffffff16141515610a1557610b86565b600760009054906101000a900473ffffffffffffffffffffffffffffffffffffffff1673ffffffffffffffffffffffffffffffffffffffff168173ffffffffffffffffffffffffffffffffffffffff16141515610a7157610b86565b610aaf6040805190810160405280600281526020017f633300000000000000000000000000000000000000000000000000000000000081525061147f565b1515610aba57610b86565b610b2d60c060405190810160405280602060405190810160405280600081525081526020013373ffffffffffffffffffffffffffffffffffffffff1681526020018373ffffffffffffffffffffffffffffffffffffffff16815260200185815260200184815260200160008152506116f9565b610b376003611506565b610b756040805190810160405280600281526020017f6333000000000000000000000000000000000000000000000000000000000000815250611510565b610b85610b8061198f565b611ac9565b5b505050565b600760009054906101000a900473ffffffffffffffffffffffffffffffffffffffff1673ffffffffffffffffffffffffffffffffffffffff163373ffffffffffffffffffffffffffffffffffffffff16141515610be757610da7565b600660009054906101000a900473ffffffffffffffffffffffffffffffffffffffff1673ffffffffffffffffffffffffffffffffffffffff168173ffffffffffffffffffffffffffffffffffffffff16141515610c4357610da7565b610c816040805190810160405280600281526020017f633100000000000000000000000000000000000000000000000000000000000081525061147f565b1515610c8c57610da7565b610cff60c060405190810160405280602060405190810160405280600081525081526020013373ffffffffffffffffffffffffffffffffffffffff1681526020018373ffffffffffffffffffffffffffffffffffffffff16815260200185815260200184815260200160008152506116f9565b610d096006611506565b610d476040805190810160405280600281526020017f6331000000000000000000000000000000000000000000000000000000000000815250611510565b6001600060405180807f73656d4c656674310000000000000000000000000000000000000000000000008152506008019050908152602001604051809103902060006101000a81548160ff021916908315150217905550610da6611598565b5b505050565b6002431015610dba57610e5c565b610df86040805190810160405280600281526020017f633300000000000000000000000000000000000000000000000000000000000081525061147f565b1515610e0357610e5c565b610e0d6004611506565b610e4b6040805190810160405280600281526020017f6333000000000000000000000000000000000000000000000000000000000000815250611510565b610e5b610e5661198f565b611c54565b5b565b60006002836040518082805190602001908083835b602083101515610e985780518252602082019150602081019050602083039250610e73565b6001836020036101000a038019825116818451168082178552505050505050905001915050908152602001604051809103902060009054906101000a900473ffffffffffffffffffffffffffffffffffffffff1673ffffffffffffffffffffffffffffffffffffffff1663f8b2cb4f836040518263ffffffff167c0100000000000000000000000000000000000000000000000000000000028152600401808273ffffffffffffffffffffffffffffffffffffffff1673ffffffffffffffffffffffffffffffffffffffff168152602001915050602060405180830381600087803b158015610f8657600080fd5b505af1158015610f9a573d6000803e3d6000fd5b505050506040513d6020811015610fb057600080fd5b8101908080519060200190929190505050905092915050565b60c8431015610fd7576110c8565b6110156040805190810160405280600281526020017f633100000000000000000000000000000000000000000000000000000000000081525061147f565b1515611020576110c8565b61102a6007611506565b6110686040805190810160405280600281526020017f6331000000000000000000000000000000000000000000000000000000000000815250611510565b6001600060405180807f73656d4c656674310000000000000000000000000000000000000000000000008152506008019050908152602001604051809103902060006101000a81548160ff0219169083151502179055506110c7611598565b5b565b6000600354905090565b60606000806000806004868154811015156110eb57fe5b906000526020600020906006020160030160048781548110151561110b57fe5b90600052602060002090600602016004015460048881548110151561112c57fe5b906000526020600020906006020160010160009054906101000a900473ffffffffffffffffffffffffffffffffffffffff1660048981548110151561116d57fe5b906000526020600020906006020160020160009054906101000a900473ffffffffffffffffffffffffffffffffffffffff1660048a8154811015156111ae57fe5b906000526020600020906006020160050154848054600181600116156101000203166002900480601f0160208091040260200160405190810160405280929190818152602001828054600181600116156101000203166002900480156112555780601f1061122a57610100808354040283529160200191611255565b820191906000526020600020905b81548152906001019060200180831161123857829003601f168201915b505050505094509450945094509450945091939590929450565b3373ffffffffffffffffffffffffffffffffffffffff16600560009054906101000a900473ffffffffffffffffffffffffffffffffffffffff1673ffffffffffffffffffffffffffffffffffffffff16141515611334576040517f08c379a000000000000000000000000000000000000000000000000000000000815260040180806020018281038252601f8152602001807f4f6e6c7920746865206f776e65722063616e206973737565206173736574730081525060200191505060405180910390fd5b6002836040518082805190602001908083835b60208310151561136c5780518252602082019150602081019050602083039250611347565b6001836020036101000a038019825116818451168082178552505050505050905001915050908152602001604051809103902060009054906101000a900473ffffffffffffffffffffffffffffffffffffffff1673ffffffffffffffffffffffffffffffffffffffff16634d667cf482846040518363ffffffff167c0100000000000000000000000000000000000000000000000000000000028152600401808373ffffffffffffffffffffffffffffffffffffffff1673ffffffffffffffffffffffffffffffffffffffff16815260200182815260200192505050600060405180830381600087803b15801561146257600080fd5b505af1158015611476573d6000803e3d6000fd5b50505050505050565b6000600180836040518082805190602001908083835b6020831015156114ba5780518252602082019150602081019050602083039250611495565b6001836020036101000a038019825116818451168082178552505050505050905001915050908152602001604051809103902060009054906101000a900460ff1660ff16149050919050565b8060038190555050565b60026001826040518082805190602001908083835b60208310151561154a5780518252602082019150602081019050602083039250611525565b6001836020036101000a038019825116818451168082178552505050505050905001915050908152602001604051809103902060006101000a81548160ff021916908360ff16021790555050565b600060405180807f73656d4c656674310000000000000000000000000000000000000000000000008152506008019050908152602001604051809103902060009054906101000a900460ff1615156115ef576116f7565b600060405180807f73656d52696768743100000000000000000000000000000000000000000000008152506009019050908152602001604051809103902060009054906101000a900460ff161515611646576116f7565b6116506002611506565b7f0f9302c81771c0eee3c21199d1d5510ce78a68962d32a182bd71b8fb22a9ff1d6040518080602001828103825260058152602001807f726561647900000000000000000000000000000000000000000000000000000081525060200191505060405180910390a16116f66040805190810160405280600281526020017f6333000000000000000000000000000000000000000000000000000000000000815250611ddf565b5b565b600281606001516040518082805190602001908083835b6020831015156117355780518252602082019150602081019050602083039250611710565b6001836020036101000a038019825116818451168082178552505050505050905001915050908152602001604051809103902060009054906101000a900473ffffffffffffffffffffffffffffffffffffffff1673ffffffffffffffffffffffffffffffffffffffff1663beabacc882602001513084608001516040518463ffffffff167c0100000000000000000000000000000000000000000000000000000000028152600401808473ffffffffffffffffffffffffffffffffffffffff1673ffffffffffffffffffffffffffffffffffffffff1681526020018373ffffffffffffffffffffffffffffffffffffffff1673ffffffffffffffffffffffffffffffffffffffff1681526020018281526020019350505050600060405180830381600087803b15801561186757600080fd5b505af115801561187b573d6000803e3d6000fd5b505050506004819080600181540180825580915050906001820390600052602060002090600602016000909192909190915060008201518160000190805190602001906118c9929190612945565b5060208201518160010160006101000a81548173ffffffffffffffffffffffffffffffffffffffff021916908373ffffffffffffffffffffffffffffffffffffffff16021790555060408201518160020160006101000a81548173ffffffffffffffffffffffffffffffffffffffff021916908373ffffffffffffffffffffffffffffffffffffffff1602179055506060820151816003019080519060200190611974929190612945565b506080820151816004015560a0820151816005015550505050565b6060600060606000600480549050925060206040519081016040528060008152509150600090505b82811015611ac057816119c982611e66565b6040516020018083805190602001908083835b602083101515611a0157805182526020820191506020810190506020830392506119dc565b6001836020036101000a038019825116818451168082178552505050505050905001807f2c0000000000000000000000000000000000000000000000000000000000000081525060010182805190602001908083835b602083101515611a7c5780518252602082019150602081019050602083039250611a57565b6001836020036101000a03801982511681845116808217855250505050505090500192505050604051602081830303815290604052915080806001019150506119b7565b81935050505090565b611ad16129c5565b611ad96129c5565b60606000806000611ae987612043565b9550611b296040805190810160405280600181526020017f2c00000000000000000000000000000000000000000000000000000000000000815250612043565b94506001611b40868861207190919063ffffffff16565b01604051908082528060200260200182016040528015611b6f5781602001602082028038833980820191505090505b509350600092505b8351831015611bcc57611ba3611b9e611b9987896120e890919063ffffffff16565b612102565b612164565b8484815181101515611bb157fe5b90602001906020020181815250508280600101935050611b77565b83519150600090505b81811015611c4b57600060048583815181101515611bef57fe5b90602001906020020151815481101515611c0557fe5b9060005260206000209060060201600501541415611c3e57611c3d8482815181101515611c2e57fe5b90602001906020020151612236565b5b8080600101915050611bd5565b50505050505050565b611c5c6129c5565b611c646129c5565b60606000806000611c7487612043565b9550611cb46040805190810160405280600181526020017f2c00000000000000000000000000000000000000000000000000000000000000815250612043565b94506001611ccb868861207190919063ffffffff16565b01604051908082528060200260200182016040528015611cfa5781602001602082028038833980820191505090505b509350600092505b8351831015611d5757611d2e611d29611d2487896120e890919063ffffffff16565b612102565b612164565b8484815181101515611d3c57fe5b90602001906020020181815250508280600101935050611d02565b83519150600090505b81811015611dd657600060048583815181101515611d7a57fe5b90602001906020020151815481101515611d9057fe5b9060005260206000209060060201600501541415611dc957611dc88482815181101515611db957fe5b906020019060200201516124ce565b5b8080600101915050611d60565b50505050505050565b600180826040518082805190602001908083835b602083101515611e185780518252602082019150602081019050602083039250611df3565b6001836020036101000a038019825116818451168082178552505050505050905001915050908152602001604051809103902060006101000a81548160ff021916908360ff16021790555050565b6060600060606000806060600060649550856040519080825280601f01601f191660200182016040528015611eaa5781602001602082028038833980820191505090505b509450600093505b600088141515611f4957600a88811515611ec857fe5b069250600a88811515611ed757fe5b049750826030017f0100000000000000000000000000000000000000000000000000000000000000028585806001019650815181101515611f1457fe5b9060200101907effffffffffffffffffffffffffffffffffffffffffffffffffffffffffffff1916908160001a905350611eb2565b836040519080825280601f01601f191660200182016040528015611f7c5781602001602082028038833980820191505090505b509150600090505b838110156120355784600182860303815181101515611f9f57fe5b9060200101517f010000000000000000000000000000000000000000000000000000000000000090047f0100000000000000000000000000000000000000000000000000000000000000028282815181101515611ff857fe5b9060200101907effffffffffffffffffffffffffffffffffffffffffffffffffffffffffffff1916908160001a9053508080600101915050611f84565b819650505050505050919050565b61204b6129c5565b600060208301905060408051908101604052808451815260200182815250915050919050565b60008082600001516120958560000151866020015186600001518760200151612766565b0190505b8360000151846020015101811115156120e157818060010192505082600001516120d9856020015183038660000151038386600001518760200151612766565b019050612099565b5092915050565b6120f06129c5565b6120fb83838361284c565b5092915050565b606080600083600001516040519080825280601f01601f19166020018201604052801561213e5781602001602082028038833980820191505090505b50915060208201905061215a81856020015186600001516128ea565b8192505050919050565b6000606060008084925060009350600091505b825182101561222e57828281518110151561218e57fe5b9060200101517f010000000000000000000000000000000000000000000000000000000000000090047f0100000000000000000000000000000000000000000000000000000000000000027f01000000000000000000000000000000000000000000000000000000000000009004905060308110158015612210575060398111155b156122215760308103600a85020193505b8180600101925050612177565b505050919050565b600060048281548110151561224757fe5b90600052602060002090600602019050600081600501541415156122f9576040517f08c379a00000000000000000000000000000000000000000000000000000000081526004018080602001828103825260338152602001807f436f6d6d69746d656e7420737461747573206d757374206265204f70656e202881526020017f302920746f20616c6c6f772072656c656173650000000000000000000000000081525060400191505060405180910390fd5b600281600301604051808280546001816001161561010002031660029004801561235a5780601f1061233857610100808354040283529182019161235a565b820191906000526020600020905b815481529060010190602001808311612346575b5050915050908152602001604051809103902060009054906101000a900473ffffffffffffffffffffffffffffffffffffffff1673ffffffffffffffffffffffffffffffffffffffff1663beabacc8308360020160009054906101000a900473ffffffffffffffffffffffffffffffffffffffff1684600401546040518463ffffffff167c0100000000000000000000000000000000000000000000000000000000028152600401808473ffffffffffffffffffffffffffffffffffffffff1673ffffffffffffffffffffffffffffffffffffffff1681526020018373ffffffffffffffffffffffffffffffffffffffff1673ffffffffffffffffffffffffffffffffffffffff1681526020018281526020019350505050600060405180830381600087803b15801561248c57600080fd5b505af11580156124a0573d6000803e3d6000fd5b5050505060016004838154811015156124b557fe5b9060005260206000209060060201600501819055505050565b60006004828154811015156124df57fe5b9060005260206000209060060201905060008160050154141515612591576040517f08c379a00000000000000000000000000000000000000000000000000000000081526004018080602001828103825260328152602001807f436f6d6d69746d656e7420737461747573206d757374206265204f70656e202881526020017f302920746f20616c6c6f772063616e63656c000000000000000000000000000081525060400191505060405180910390fd5b60028160030160405180828054600181600116156101000203166002900480156125f25780601f106125d05761010080835404028352918201916125f2565b820191906000526020600020905b8154815290600101906020018083116125de575b5050915050908152602001604051809103902060009054906101000a900473ffffffffffffffffffffffffffffffffffffffff1673ffffffffffffffffffffffffffffffffffffffff1663beabacc8308360010160009054906101000a900473ffffffffffffffffffffffffffffffffffffffff1684600401546040518463ffffffff167c0100000000000000000000000000000000000000000000000000000000028152600401808473ffffffffffffffffffffffffffffffffffffffff1673ffffffffffffffffffffffffffffffffffffffff1681526020018373ffffffffffffffffffffffffffffffffffffffff1673ffffffffffffffffffffffffffffffffffffffff1681526020018281526020019350505050600060405180830381600087803b15801561272457600080fd5b505af1158015612738573d6000803e3d6000fd5b50505050600260048381548110151561274d57fe5b9060005260206000209060060201600501819055505050565b60008060008060008060008060008b97508c8b1115156128365760208b1115156127f05760018b60200360080260020a03196001029550858a511694508a8d8d010393508588511692505b846000191683600019161415156127e85783881015156127d5578c8c01985061283c565b87806001019850508588511692506127b1565b87985061283c565b8a8a209150600096505b8a8d0387111515612835578a882090508060001916826000191614156128225787985061283c565b60018801975086806001019750506127fa565b5b8c8c0198505b5050505050505050949350505050565b6128546129c5565b60006128728560000151866020015186600001518760200151612766565b905084602001518360200181815250508460200151810383600001818152505084600001518560200151018114156128b45760008560000181815250506128df565b8360000151836000015101856000018181510391508181525050836000015181018560200181815250505b829150509392505050565b60005b60208210151561291257825184526020840193506020830192506020820391506128ed565b6001826020036101000a0390508019835116818551168181178652505050505050565b6040516107e580612a0583390190565b828054600181600116156101000203166002900490600052602060002090601f016020900481019282601f1061298657805160ff19168380011785556129b4565b828001600101855582156129b4579182015b828111156129b3578251825591602001919060010190612998565b5b5090506129c191906129df565b5090565b604080519081016040528060008152602001600081525090565b612a0191905b808211156129fd5760008160009055506001016129e5565b5090565b905600608060405234801561001057600080fd5b506040516020806107e583398101806040528101908080519060200190929190505050806000806101000a81548173ffffffffffffffffffffffffffffffffffffffff021916908373ffffffffffffffffffffffffffffffffffffffff16021790555050610762806100836000396000f300608060405260043610610057576000357c0100000000000000000000000000000000000000000000000000000000900463ffffffff1680634d667cf41461005c578063beabacc8146100a9578063f8b2cb4f14610116575b600080fd5b34801561006857600080fd5b506100a7600480360381019080803573ffffffffffffffffffffffffffffffffffffffff1690602001909291908035906020019092919050505061016d565b005b3480156100b557600080fd5b50610114600480360381019080803573ffffffffffffffffffffffffffffffffffffffff169060200190929190803573ffffffffffffffffffffffffffffffffffffffff16906020019092919080359060200190929190505050610382565b005b34801561012257600080fd5b50610157600480360381019080803573ffffffffffffffffffffffffffffffffffffffff1690602001909291905050506106ed565b6040518082815260200191505060405180910390f35b6000809054906101000a900473ffffffffffffffffffffffffffffffffffffffff1673ffffffffffffffffffffffffffffffffffffffff163373ffffffffffffffffffffffffffffffffffffffff16141515610257576040517f08c379a000000000000000000000000000000000000000000000000000000000815260040180806020018281038252602f8152602001807f4173736574732063616e206f6e6c79206265206973737565642062792074686581526020017f207265676973747279206f776e6572000000000000000000000000000000000081525060400191505060405180910390fd5b80600160008473ffffffffffffffffffffffffffffffffffffffff1673ffffffffffffffffffffffffffffffffffffffff168152602001908152602001600020600082825401925050819055507f34ae7779d4c90619282b3368b4dd0b74822ca4317934b4acd6e520a3835c15f9600083836000600160008873ffffffffffffffffffffffffffffffffffffffff1673ffffffffffffffffffffffffffffffffffffffff16815260200190815260200160002054604051808673ffffffffffffffffffffffffffffffffffffffff1681526020018573ffffffffffffffffffffffffffffffffffffffff1673ffffffffffffffffffffffffffffffffffffffff1681526020018481526020018381526020018281526020019550505050505060405180910390a15050565b6000809054906101000a900473ffffffffffffffffffffffffffffffffffffffff1673ffffffffffffffffffffffffffffffffffffffff163373ffffffffffffffffffffffffffffffffffffffff1614151561046c576040517f08c379a00000000000000000000000000000000000000000000000000000000081526004018080602001828103825260348152602001807f4173736574732063616e206f6e6c79206265207472616e73666572726564206281526020017f7920746865207265676973747279206f776e657200000000000000000000000081525060400191505060405180910390fd5b80600160008573ffffffffffffffffffffffffffffffffffffffff1673ffffffffffffffffffffffffffffffffffffffff168152602001908152602001600020541015610521576040517f08c379a00000000000000000000000000000000000000000000000000000000081526004018080602001828103825260128152602001807f4e6f7420656e6f7567682062616c616e6365000000000000000000000000000081525060200191505060405180910390fd5b80600160008573ffffffffffffffffffffffffffffffffffffffff1673ffffffffffffffffffffffffffffffffffffffff1681526020019081526020016000206000828254039250508190555080600160008473ffffffffffffffffffffffffffffffffffffffff1673ffffffffffffffffffffffffffffffffffffffff168152602001908152602001600020600082825401925050819055507f34ae7779d4c90619282b3368b4dd0b74822ca4317934b4acd6e520a3835c15f9838383600160008873ffffffffffffffffffffffffffffffffffffffff1673ffffffffffffffffffffffffffffffffffffffff16815260200190815260200160002054600160008873ffffffffffffffffffffffffffffffffffffffff1673ffffffffffffffffffffffffffffffffffffffff16815260200190815260200160002054604051808673ffffffffffffffffffffffffffffffffffffffff1673ffffffffffffffffffffffffffffffffffffffff1681526020018573ffffffffffffffffffffffffffffffffffffffff1673ffffffffffffffffffffffffffffffffffffffff1681526020018481526020018381526020018281526020019550505050505060405180910390a1505050565b6000600160008373ffffffffffffffffffffffffffffffffffffffff1673ffffffffffffffffffffffffffffffffffffffff1681526020019081526020016000205490509190505600a165627a7a723058206aa68e772b7b009bb0a8118cc792b03e8cd5b5ff7a0b82937beb238e168edc190029a165627a7a72305820253728596b8134b9a81caba64630dbed4b0ccaa4f09099547e2606952dd17ac10029",
  "source": "pragma solidity ^0.4.24;\n\nimport \"./PorthosContract.sol\";\n\ncontract T2 is PorthosContract {\n\n  address alice = 0xf1c13a88cf28c4d06269a150dd8cdb2e3061d44f;\n  address bob = 0x4603bd7000aba82eab4aaea605df43a1e37ef2bb;\n  address charlie = 0xb9f62ffe791ff9fa9c51722e3b833bf51db290de;\n\nfunction continue_1() private\n{\n  if(!semaphore[\"semLeft1\"])\n    return;\n  if(!semaphore[\"semRight1\"])\n    return;\n  setContractStatus(2);\n  emit LogEvent(\"ready\");\n  openGate(\"c3\");\n}\n\nfunction c3_commit(string _assetType, uint _quantity, address _recipient) public\n{\n  if(msg.sender != charlie)\n    return;\n  if(_recipient != bob)\n    return;\n  if(!isGateOpen(\"c3\"))\n    return;\n  addCommitment(Commitment({tagId: \"\", sender: msg.sender, recipient: _recipient, assetType: _assetType, quantity: _quantity, status: 0}));\n  setContractStatus(3);\n  closeGate(\"c3\");\n  releaseCommitments(getAllCommitments());\n}\n\nfunction c3_timeout() public\n{\n  if(block.number < 2)\n    return;\n  if(!isGateOpen(\"c3\"))\n    return;\n  setContractStatus(4);\n  closeGate(\"c3\");\n  cancelCommitments(getAllCommitments());\n}\n\nconstructor() public\n{\n  setContractStatus(5);\n  semaphore[\"semLeft1\"] = false;\n  semaphore[\"semRight1\"] = false;\n  emit LogEvent(\"starting c1\");\n  openGate(\"c1\");\n  emit LogEvent(\"starting c2\");\n  openGate(\"c2\");\n}\n\nfunction c1_commit(string _assetType, uint _quantity, address _recipient) public\n{\n  if(msg.sender != bob)\n    return;\n  if(_recipient != alice)\n    return;\n  if(!isGateOpen(\"c1\"))\n    return;\n  addCommitment(Commitment({tagId: \"\", sender: msg.sender, recipient: _recipient, assetType: _assetType, quantity: _quantity, status: 0}));\n  setContractStatus(6);\n  closeGate(\"c1\");\n  semaphore[\"semLeft1\"] = true;\n  continue_1();\n}\n\nfunction c1_timeout() public\n{\n  if(block.number < 200)\n    return;\n  if(!isGateOpen(\"c1\"))\n    return;\n  setContractStatus(7);\n  closeGate(\"c1\");\n  semaphore[\"semLeft1\"] = true;\n  continue_1();\n}\n\nfunction c2_commit(string _assetType, uint _quantity, address _recipient) public\n{\n  if(msg.sender != alice)\n    return;\n  if(_recipient != bob)\n    return;\n  if(!isGateOpen(\"c2\"))\n    return;\n  addCommitment(Commitment({tagId: \"\", sender: msg.sender, recipient: _recipient, assetType: _assetType, quantity: _quantity, status: 0}));\n  setContractStatus(8);\n  closeGate(\"c2\");\n  semaphore[\"semRight1\"] = true;\n  continue_1();\n}\n\nfunction c2_timeout() public\n{\n  if(block.number < 200)\n    return;\n  if(!isGateOpen(\"c2\"))\n    return;\n  setContractStatus(9);\n  closeGate(\"c2\");\n  semaphore[\"semRight1\"] = true;\n  continue_1();\n}\n\n}\n",
  "sourcePath": "/Users/adrian/Cloud Drives/Dropbox/Dev/porthos/solidity/contracts/T2.sol",
  "compiler": {
    "name": "solc",
    "version": "0.4.24+commit.e67f0147.Emscripten.clang"
  },
  "schemaVersion": "2.0.1",
  "updatedAt": "2018-10-10T05:24:22.810Z"
}