{
  "contractName": "T2",
  "abi": [
    {
      "constant": true,
      "inputs": [
        {
          "name": "s",
          "type": "string"
        }
      ],
      "name": "stringToUint",
      "outputs": [
        {
          "name": "result",
          "type": "uint256"
        }
      ],
      "payable": false,
      "stateMutability": "view",
      "type": "function"
    },
    {
      "constant": true,
      "inputs": [],
      "name": "getContractStatus",
      "outputs": [
        {
          "name": "",
          "type": "uint256"
        }
      ],
      "payable": false,
      "stateMutability": "view",
      "type": "function"
    },
    {
      "constant": true,
      "inputs": [
        {
          "name": "_commitmentId",
          "type": "uint256"
        }
      ],
      "name": "fetchCommitment",
      "outputs": [
        {
          "name": "",
          "type": "string"
        },
        {
          "name": "",
          "type": "uint256"
        },
        {
          "name": "",
          "type": "address"
        },
        {
          "name": "",
          "type": "address"
        },
        {
          "name": "",
          "type": "uint256"
        }
      ],
      "payable": false,
      "stateMutability": "view",
      "type": "function"
    },
    {
      "constant": false,
      "inputs": [
        {
          "name": "assetType",
          "type": "string"
        },
        {
          "name": "quantity",
          "type": "uint256"
        },
        {
          "name": "recipient",
          "type": "address"
        }
      ],
      "name": "issueAsset",
      "outputs": [],
      "payable": false,
      "stateMutability": "nonpayable",
      "type": "function"
    },
    {
      "inputs": [],
      "payable": false,
      "stateMutability": "nonpayable",
      "type": "constructor"
    },
    {
      "anonymous": false,
      "inputs": [
        {
          "indexed": false,
          "name": "message",
          "type": "string"
        }
      ],
      "name": "LogEvent",
      "type": "event"
    },
    {
      "constant": false,
      "inputs": [
        {
          "name": "_assetType",
          "type": "string"
        },
        {
          "name": "_quantity",
          "type": "uint256"
        },
        {
          "name": "_recipient",
          "type": "address"
        }
      ],
      "name": "c3_commit",
      "outputs": [],
      "payable": false,
      "stateMutability": "nonpayable",
      "type": "function"
    },
    {
      "constant": false,
      "inputs": [],
      "name": "c3_timeout",
      "outputs": [],
      "payable": false,
      "stateMutability": "nonpayable",
      "type": "function"
    },
    {
      "constant": false,
      "inputs": [
        {
          "name": "_assetType",
          "type": "string"
        },
        {
          "name": "_quantity",
          "type": "uint256"
        },
        {
          "name": "_recipient",
          "type": "address"
        }
      ],
      "name": "c1_commit",
      "outputs": [],
      "payable": false,
      "stateMutability": "nonpayable",
      "type": "function"
    },
    {
      "constant": false,
      "inputs": [],
      "name": "c1_timeout",
      "outputs": [],
      "payable": false,
      "stateMutability": "nonpayable",
      "type": "function"
    },
    {
      "constant": false,
      "inputs": [
        {
          "name": "_assetType",
          "type": "string"
        },
        {
          "name": "_quantity",
          "type": "uint256"
        },
        {
          "name": "_recipient",
          "type": "address"
        }
      ],
      "name": "c2_commit",
      "outputs": [],
      "payable": false,
      "stateMutability": "nonpayable",
      "type": "function"
    },
    {
      "constant": false,
      "inputs": [],
      "name": "c2_timeout",
      "outputs": [],
      "payable": false,
      "stateMutability": "nonpayable",
      "type": "function"
    }
  ],
  "bytecode": "0x6080604052600060025573e9ff96cd80f97a9a27ca7b8a19296b8c55885dd7600760006101000a81548173ffffffffffffffffffffffffffffffffffffffff021916908373ffffffffffffffffffffffffffffffffffffffff16021790555073f927acf6405b0a5153a064f6933971320f234da0600860006101000a81548173ffffffffffffffffffffffffffffffffffffffff021916908373ffffffffffffffffffffffffffffffffffffffff16021790555073aa4b4a309b7c50eae56b61835cd7ecaa21b3ea17600960006101000a81548173ffffffffffffffffffffffffffffffffffffffff021916908373ffffffffffffffffffffffffffffffffffffffff1602179055503480156200011557600080fd5b5033600660006101000a81548173ffffffffffffffffffffffffffffffffffffffff021916908373ffffffffffffffffffffffffffffffffffffffff1602179055503062000162620007ca565b808273ffffffffffffffffffffffffffffffffffffffff1673ffffffffffffffffffffffffffffffffffffffff168152602001915050604051809103906000f080158015620001b5573d6000803e3d6000fd5b50600560006101000a81548173ffffffffffffffffffffffffffffffffffffffff021916908373ffffffffffffffffffffffffffffffffffffffff16021790555062000211600562000737640100000000026401000000009004565b60008060405180807f73656d4c656674310000000000000000000000000000000000000000000000008152506008019050908152602001604051809103902060006101000a81548160ff02191690831515021790555060008060405180807f73656d52696768743100000000000000000000000000000000000000000000008152506009019050908152602001604051809103902060006101000a81548160ff0219169083151502179055507f0f9302c81771c0eee3c21199d1d5510ce78a68962d32a182bd71b8fb22a9ff1d60405180806020018281038252600b8152602001807f7374617274696e6720633100000000000000000000000000000000000000000081525060200191505060405180910390a1620003746040805190810160405280600281526020017f633100000000000000000000000000000000000000000000000000000000000081525062000741640100000000026401000000009004565b7f0f9302c81771c0eee3c21199d1d5510ce78a68962d32a182bd71b8fb22a9ff1d60405180806020018281038252600b8152602001807f7374617274696e6720633200000000000000000000000000000000000000000081525060200191505060405180910390a16200042b6040805190810160405280600281526020017f633200000000000000000000000000000000000000000000000000000000000081525062000741640100000000026401000000009004565b600560009054906101000a900473ffffffffffffffffffffffffffffffffffffffff1673ffffffffffffffffffffffffffffffffffffffff16634d667cf4600760009054906101000a900473ffffffffffffffffffffffffffffffffffffffff1660646040518363ffffffff167c0100000000000000000000000000000000000000000000000000000000028152600401808373ffffffffffffffffffffffffffffffffffffffff1673ffffffffffffffffffffffffffffffffffffffff16815260200182815260200192505050600060405180830381600087803b1580156200051457600080fd5b505af115801562000529573d6000803e3d6000fd5b50505050600560009054906101000a900473ffffffffffffffffffffffffffffffffffffffff1673ffffffffffffffffffffffffffffffffffffffff16634d667cf4600860009054906101000a900473ffffffffffffffffffffffffffffffffffffffff1660646040518363ffffffff167c0100000000000000000000000000000000000000000000000000000000028152600401808373ffffffffffffffffffffffffffffffffffffffff1673ffffffffffffffffffffffffffffffffffffffff16815260200182815260200192505050600060405180830381600087803b1580156200061657600080fd5b505af11580156200062b573d6000803e3d6000fd5b50505050600560009054906101000a900473ffffffffffffffffffffffffffffffffffffffff1673ffffffffffffffffffffffffffffffffffffffff16634d667cf4600960009054906101000a900473ffffffffffffffffffffffffffffffffffffffff1660646040518363ffffffff167c0100000000000000000000000000000000000000000000000000000000028152600401808373ffffffffffffffffffffffffffffffffffffffff1673ffffffffffffffffffffffffffffffffffffffff16815260200182815260200192505050600060405180830381600087803b1580156200071857600080fd5b505af11580156200072d573d6000803e3d6000fd5b50505050620007db565b8060028190555050565b600180826040518082805190602001908083835b6020831015156200077c578051825260208201915060208101905060208303925062000755565b6001836020036101000a038019825116818451168082178552505050505050905001915050908152602001604051809103902060006101000a81548160ff021916908360ff16021790555050565b6040516105de8062002a1583390190565b61222a80620007eb6000396000f3006080604052600436106100a4576000357c0100000000000000000000000000000000000000000000000000000000900463ffffffff16806317206e67146100a95780631bd95155146100c05780632bd760921461013d578063671ad61c146101d057806371c35e511461026357806390f26750146102f6578063bf0e39771461030d578063c032846b14610324578063e3b917971461034f578063e4c07be214610469575b600080fd5b3480156100b557600080fd5b506100be6104fc565b005b3480156100cc57600080fd5b50610127600480360381019080803590602001908201803590602001908080601f01602080910402602001604051908101604052809392919081815260200183838082843782019150505050505091929192905050506105fd565b6040518082815260200191505060405180910390f35b34801561014957600080fd5b506101ce600480360381019080803590602001908201803590602001908080601f016020809104026020016040519081016040528093929190818152602001838380828437820191505050505050919291929080359060200190929190803573ffffffffffffffffffffffffffffffffffffffff1690602001909291905050506106cf565b005b3480156101dc57600080fd5b50610261600480360381019080803590602001908201803590602001908080601f016020809104026020016040519081016040528093929190818152602001838380828437820191505050505050919291929080359060200190929190803573ffffffffffffffffffffffffffffffffffffffff1690602001909291905050506108f0565b005b34801561026f57600080fd5b506102f4600480360381019080803590602001908201803590602001908080601f016020809104026020016040519081016040528093929190818152602001838380828437820191505050505050919291929080359060200190929190803573ffffffffffffffffffffffffffffffffffffffff169060200190929190505050610b64565b005b34801561030257600080fd5b5061030b610d85565b005b34801561031957600080fd5b50610322610e27565b005b34801561033057600080fd5b50610339610f28565b6040518082815260200191505060405180910390f35b34801561035b57600080fd5b5061037a60048036038101908080359060200190929190505050610f32565b60405180806020018681526020018573ffffffffffffffffffffffffffffffffffffffff1673ffffffffffffffffffffffffffffffffffffffff1681526020018473ffffffffffffffffffffffffffffffffffffffff1673ffffffffffffffffffffffffffffffffffffffff168152602001838152602001828103825287818151815260200191508051906020019080838360005b8381101561042a57808201518184015260208101905061040f565b50505050905090810190601f1680156104575780820380516001836020036101000a031916815260200191505b50965050505050505060405180910390f35b34801561047557600080fd5b506104fa600480360381019080803590602001908201803590602001908080601f016020809104026020016040519081016040528093929190818152602001838380828437820191505050505050919291929080359060200190929190803573ffffffffffffffffffffffffffffffffffffffff1690602001909291905050506110cd565b005b60c842111561050a576105fb565b6105486040805190810160405280600281526020017f6332000000000000000000000000000000000000000000000000000000000000815250611319565b1515610553576105fb565b61055d60096113a0565b61059b6040805190810160405280600281526020017f63320000000000000000000000000000000000000000000000000000000000008152506113aa565b6001600060405180807f73656d52696768743100000000000000000000000000000000000000000000008152506009019050908152602001604051809103902060006101000a81548160ff0219169083151502179055506105fa611432565b5b565b6000606060008084925060009350600091505b82518210156106c757828281518110151561062757fe5b9060200101517f010000000000000000000000000000000000000000000000000000000000000090047f0100000000000000000000000000000000000000000000000000000000000000027f010000000000000000000000000000000000000000000000000000000000000090049050603081101580156106a9575060398111155b156106ba5760308103600a85020193505b8180600101925050610610565b505050919050565b600760009054906101000a900473ffffffffffffffffffffffffffffffffffffffff1673ffffffffffffffffffffffffffffffffffffffff163373ffffffffffffffffffffffffffffffffffffffff1614151561072b576108eb565b600860009054906101000a900473ffffffffffffffffffffffffffffffffffffffff1673ffffffffffffffffffffffffffffffffffffffff168173ffffffffffffffffffffffffffffffffffffffff16141515610787576108eb565b6107c56040805190810160405280600281526020017f6332000000000000000000000000000000000000000000000000000000000000815250611319565b15156107d0576108eb565b61084360c060405190810160405280602060405190810160405280600081525081526020013373ffffffffffffffffffffffffffffffffffffffff1681526020018373ffffffffffffffffffffffffffffffffffffffff1681526020018581526020018481526020016000815250611593565b61084d60086113a0565b61088b6040805190810160405280600281526020017f63320000000000000000000000000000000000000000000000000000000000008152506113aa565b6001600060405180807f73656d52696768743100000000000000000000000000000000000000000000008152506009019050908152602001604051809103902060006101000a81548160ff0219169083151502179055506108ea611432565b5b505050565b6060600960009054906101000a900473ffffffffffffffffffffffffffffffffffffffff1673ffffffffffffffffffffffffffffffffffffffff163373ffffffffffffffffffffffffffffffffffffffff1614151561094e57610b5e565b600860009054906101000a900473ffffffffffffffffffffffffffffffffffffffff1673ffffffffffffffffffffffffffffffffffffffff168273ffffffffffffffffffffffffffffffffffffffff161415156109aa57610b5e565b6109e86040805190810160405280600281526020017f6333000000000000000000000000000000000000000000000000000000000000815250611319565b15156109f357610b5e565b610a6660c060405190810160405280602060405190810160405280600081525081526020013373ffffffffffffffffffffffffffffffffffffffff1681526020018473ffffffffffffffffffffffffffffffffffffffff1681526020018681526020018581526020016000815250611593565b610a7060036113a0565b610aae6040805190810160405280600281526020017f63330000000000000000000000000000000000000000000000000000000000008152506113aa565b610ab66117bc565b90507f0f9302c81771c0eee3c21199d1d5510ce78a68962d32a182bd71b8fb22a9ff1d816040518080602001828103825283818151815260200191508051906020019080838360005b83811015610b1a578082015181840152602081019050610aff565b50505050905090810190601f168015610b475780820380516001836020036101000a031916815260200191505b509250505060405180910390a1610b5d8161186c565b5b50505050565b600860009054906101000a900473ffffffffffffffffffffffffffffffffffffffff1673ffffffffffffffffffffffffffffffffffffffff163373ffffffffffffffffffffffffffffffffffffffff16141515610bc057610d80565b600760009054906101000a900473ffffffffffffffffffffffffffffffffffffffff1673ffffffffffffffffffffffffffffffffffffffff168173ffffffffffffffffffffffffffffffffffffffff16141515610c1c57610d80565b610c5a6040805190810160405280600281526020017f6331000000000000000000000000000000000000000000000000000000000000815250611319565b1515610c6557610d80565b610cd860c060405190810160405280602060405190810160405280600081525081526020013373ffffffffffffffffffffffffffffffffffffffff1681526020018373ffffffffffffffffffffffffffffffffffffffff1681526020018581526020018481526020016000815250611593565b610ce260066113a0565b610d206040805190810160405280600281526020017f63310000000000000000000000000000000000000000000000000000000000008152506113aa565b6001600060405180807f73656d4c656674310000000000000000000000000000000000000000000000008152506008019050908152602001604051809103902060006101000a81548160ff021916908315150217905550610d7f611432565b5b505050565b60c8421115610d9357610e25565b610dd16040805190810160405280600281526020017f6333000000000000000000000000000000000000000000000000000000000000815250611319565b1515610ddc57610e25565b610de660046113a0565b610e246040805190810160405280600281526020017f63330000000000000000000000000000000000000000000000000000000000008152506113aa565b5b565b60c8421115610e3557610f26565b610e736040805190810160405280600281526020017f6331000000000000000000000000000000000000000000000000000000000000815250611319565b1515610e7e57610f26565b610e8860076113a0565b610ec66040805190810160405280600281526020017f63310000000000000000000000000000000000000000000000000000000000008152506113aa565b6001600060405180807f73656d4c656674310000000000000000000000000000000000000000000000008152506008019050908152602001604051809103902060006101000a81548160ff021916908315150217905550610f25611432565b5b565b6000600254905090565b6060600080600080600386815481101515610f4957fe5b9060005260206000209060060201600301600387815481101515610f6957fe5b906000526020600020906006020160040154600388815481101515610f8a57fe5b906000526020600020906006020160010160009054906101000a900473ffffffffffffffffffffffffffffffffffffffff16600389815481101515610fcb57fe5b906000526020600020906006020160020160009054906101000a900473ffffffffffffffffffffffffffffffffffffffff1660038a81548110151561100c57fe5b906000526020600020906006020160050154848054600181600116156101000203166002900480601f0160208091040260200160405190810160405280929190818152602001828054600181600116156101000203166002900480156110b35780601f10611088576101008083540402835291602001916110b3565b820191906000526020600020905b81548152906001019060200180831161109657829003601f168201915b505050505094509450945094509450945091939590929450565b3373ffffffffffffffffffffffffffffffffffffffff16600660009054906101000a900473ffffffffffffffffffffffffffffffffffffffff1673ffffffffffffffffffffffffffffffffffffffff16141515611192576040517f08c379a000000000000000000000000000000000000000000000000000000000815260040180806020018281038252601f8152602001807f4f6e6c7920746865206f776e65722063616e206973737565206173736574730081525060200191505060405180910390fd5b6004836040518082805190602001908083835b6020831015156111ca57805182526020820191506020810190506020830392506111a5565b6001836020036101000a038019825116818451168082178552505050505050905001915050908152602001604051809103902060009054906101000a900473ffffffffffffffffffffffffffffffffffffffff1673ffffffffffffffffffffffffffffffffffffffff1660405180807f697373756541737365747328616464726573732c2075696e7429000000000000815250601a01905060405180910390207c0100000000000000000000000000000000000000000000000000000000900482846040518363ffffffff167c0100000000000000000000000000000000000000000000000000000000028152600401808373ffffffffffffffffffffffffffffffffffffffff1673ffffffffffffffffffffffffffffffffffffffff168152602001828152602001925050506000604051808303816000875af192505050151561131457600080fd5b505050565b6000600180836040518082805190602001908083835b602083101515611354578051825260208201915060208101905060208303925061132f565b6001836020036101000a038019825116818451168082178552505050505050905001915050908152602001604051809103902060009054906101000a900460ff1660ff16149050919050565b8060028190555050565b60026001826040518082805190602001908083835b6020831015156113e457805182526020820191506020810190506020830392506113bf565b6001836020036101000a038019825116818451168082178552505050505050905001915050908152602001604051809103902060006101000a81548160ff021916908360ff16021790555050565b600060405180807f73656d4c656674310000000000000000000000000000000000000000000000008152506008019050908152602001604051809103902060009054906101000a900460ff16151561148957611591565b600060405180807f73656d52696768743100000000000000000000000000000000000000000000008152506009019050908152602001604051809103902060009054906101000a900460ff1615156114e057611591565b6114ea60026113a0565b7f0f9302c81771c0eee3c21199d1d5510ce78a68962d32a182bd71b8fb22a9ff1d6040518080602001828103825260058152602001807f726561647900000000000000000000000000000000000000000000000000000081525060200191505060405180910390a16115906040805190810160405280600281526020017f63330000000000000000000000000000000000000000000000000000000000008152506119f7565b5b565b600560009054906101000a900473ffffffffffffffffffffffffffffffffffffffff1673ffffffffffffffffffffffffffffffffffffffff1663beabacc882602001513084608001516040518463ffffffff167c0100000000000000000000000000000000000000000000000000000000028152600401808473ffffffffffffffffffffffffffffffffffffffff1673ffffffffffffffffffffffffffffffffffffffff1681526020018373ffffffffffffffffffffffffffffffffffffffff1673ffffffffffffffffffffffffffffffffffffffff1681526020018281526020019350505050600060405180830381600087803b15801561169457600080fd5b505af11580156116a8573d6000803e3d6000fd5b505050506003819080600181540180825580915050906001820390600052602060002090600602016000909192909190915060008201518160000190805190602001906116f692919061213f565b5060208201518160010160006101000a81548173ffffffffffffffffffffffffffffffffffffffff021916908373ffffffffffffffffffffffffffffffffffffffff16021790555060408201518160020160006101000a81548173ffffffffffffffffffffffffffffffffffffffff021916908373ffffffffffffffffffffffffffffffffffffffff16021790555060608201518160030190805190602001906117a192919061213f565b506080820151816004015560a0820151816005015550505050565b606060006060600060038054905092506040805190810160405280600181526020017f30000000000000000000000000000000000000000000000000000000000000008152509150600090505b828160ff16101561186357611854826040805190810160405280600181526020017f2c0000000000000000000000000000000000000000000000000000000000000081525083611a7e565b91508080600101915050611809565b81935050505090565b6118746121bf565b61187c6121bf565b6060600080600061188c87611b7b565b95506118cc6040805190810160405280600181526020017f2c00000000000000000000000000000000000000000000000000000000000000815250611b7b565b945060016118e38688611ba990919063ffffffff16565b016040519080825280602002602001820160405280156119125781602001602082028038833980820191505090505b509350600092505b835183101561196f5761194661194161193c8789611c2090919063ffffffff16565b611c3a565b6105fd565b848481518110151561195457fe5b9060200190602002018181525050828060010193505061191a565b83519150600090505b818110156119ee5760006003858381518110151561199257fe5b906020019060200201518154811015156119a857fe5b90600052602060002090600602016005015414156119e1576119e084828151811015156119d157fe5b90602001906020020151611c9c565b5b8080600101915050611978565b50505050505050565b600180826040518082805190602001908083835b602083101515611a305780518252602082019150602081019050602083039250611a0b565b6001836020036101000a038019825116818451168082178552505050505050905001915050908152602001604051809103902060006101000a81548160ff021916908360ff16021790555050565b60608383836040516020018084805190602001908083835b602083101515611abb5780518252602082019150602081019050602083039250611a96565b6001836020036101000a03801982511681845116808217855250505050505090500183805190602001908083835b602083101515611b0e5780518252602082019150602081019050602083039250611ae9565b6001836020036101000a0380198251168184511680821785525050505050509050018260ff1660ff167f0100000000000000000000000000000000000000000000000000000000000000028152600101935050505060405160208183030381529060405290509392505050565b611b836121bf565b600060208301905060408051908101604052808451815260200182815250915050919050565b6000808260000151611bcd8560000151866020015186600001518760200151611f70565b0190505b836000015184602001510181111515611c195781806001019250508260000151611c11856020015183038660000151038386600001518760200151611f70565b019050611bd1565b5092915050565b611c286121bf565b611c33838383612056565b5092915050565b606080600083600001516040519080825280601f01601f191660200182016040528015611c765781602001602082028038833980820191505090505b509150602082019050611c9281856020015186600001516120f4565b8192505050919050565b6000600382815481101515611cad57fe5b9060005260206000209060060201905060008160050154141515611d5f576040517f08c379a00000000000000000000000000000000000000000000000000000000081526004018080602001828103825260328152602001807f436f6d6d69746d656e7420737461747573206d757374206265204f70656e202881526020017f302920746f20616c6c6f772063616e63656c000000000000000000000000000081525060400191505060405180910390fd5b6004816003016040518082805460018160011615610100020316600290048015611dc05780601f10611d9e576101008083540402835291820191611dc0565b820191906000526020600020905b815481529060010190602001808311611dac575b5050915050908152602001604051809103902060009054906101000a900473ffffffffffffffffffffffffffffffffffffffff1673ffffffffffffffffffffffffffffffffffffffff1660405180807f7472616e7366657228616464726573732c20616464726573732c2075696e7429815250602001905060405180910390207c01000000000000000000000000000000000000000000000000000000009004308360010160009054906101000a900473ffffffffffffffffffffffffffffffffffffffff1684600401546040518463ffffffff167c0100000000000000000000000000000000000000000000000000000000028152600401808473ffffffffffffffffffffffffffffffffffffffff1673ffffffffffffffffffffffffffffffffffffffff1681526020018373ffffffffffffffffffffffffffffffffffffffff1673ffffffffffffffffffffffffffffffffffffffff16815260200182815260200193505050506000604051808303816000875af1925050501515611f4657600080fd5b6002600383815481101515611f5757fe5b9060005260206000209060060201600501819055505050565b60008060008060008060008060008b97508c8b1115156120405760208b111515611ffa5760018b60200360080260020a03196001029550858a511694508a8d8d010393508588511692505b84600019168360001916141515611ff2578388101515611fdf578c8c019850612046565b8780600101985050858851169250611fbb565b879850612046565b8a8a209150600096505b8a8d038711151561203f578a8820905080600019168260001916141561202c57879850612046565b6001880197508680600101975050612004565b5b8c8c0198505b5050505050505050949350505050565b61205e6121bf565b600061207c8560000151866020015186600001518760200151611f70565b905084602001518360200181815250508460200151810383600001818152505084600001518560200151018114156120be5760008560000181815250506120e9565b8360000151836000015101856000018181510391508181525050836000015181018560200181815250505b829150509392505050565b60005b60208210151561211c57825184526020840193506020830192506020820391506120f7565b6001826020036101000a0390508019835116818551168181178652505050505050565b828054600181600116156101000203166002900490600052602060002090601f016020900481019282601f1061218057805160ff19168380011785556121ae565b828001600101855582156121ae579182015b828111156121ad578251825591602001919060010190612192565b5b5090506121bb91906121d9565b5090565b604080519081016040528060008152602001600081525090565b6121fb91905b808211156121f75760008160009055506001016121df565b5090565b905600a165627a7a72305820d93800ff85911f2c4fe7ff9926bd4254aabd18b28008d0ae441f007895e0dd4c0029608060405234801561001057600080fd5b506040516020806105de83398101806040528101908080519060200190929190505050806000806101000a81548173ffffffffffffffffffffffffffffffffffffffff021916908373ffffffffffffffffffffffffffffffffffffffff1602179055505061055b806100836000396000f300608060405260043610610057576000357c0100000000000000000000000000000000000000000000000000000000900463ffffffff1680634d667cf41461005c578063beabacc8146100a9578063f8b2cb4f14610116575b600080fd5b34801561006857600080fd5b506100a7600480360381019080803573ffffffffffffffffffffffffffffffffffffffff1690602001909291908035906020019092919050505061016d565b005b3480156100b557600080fd5b50610114600480360381019080803573ffffffffffffffffffffffffffffffffffffffff169060200190929190803573ffffffffffffffffffffffffffffffffffffffff169060200190929190803590602001909291905050506102a8565b005b34801561012257600080fd5b50610157600480360381019080803573ffffffffffffffffffffffffffffffffffffffff1690602001909291905050506104e6565b6040518082815260200191505060405180910390f35b6000809054906101000a900473ffffffffffffffffffffffffffffffffffffffff1673ffffffffffffffffffffffffffffffffffffffff163373ffffffffffffffffffffffffffffffffffffffff16141515610257576040517f08c379a000000000000000000000000000000000000000000000000000000000815260040180806020018281038252602f8152602001807f4173736574732063616e206f6e6c79206265206973737565642062792074686581526020017f207265676973747279206f776e6572000000000000000000000000000000000081525060400191505060405180910390fd5b80600160008473ffffffffffffffffffffffffffffffffffffffff1673ffffffffffffffffffffffffffffffffffffffff168152602001908152602001600020600082825401925050819055505050565b6000809054906101000a900473ffffffffffffffffffffffffffffffffffffffff1673ffffffffffffffffffffffffffffffffffffffff163373ffffffffffffffffffffffffffffffffffffffff16141515610392576040517f08c379a00000000000000000000000000000000000000000000000000000000081526004018080602001828103825260348152602001807f4173736574732063616e206f6e6c79206265207472616e73666572726564206281526020017f7920746865207265676973747279206f776e657200000000000000000000000081525060400191505060405180910390fd5b80600160008573ffffffffffffffffffffffffffffffffffffffff1673ffffffffffffffffffffffffffffffffffffffff168152602001908152602001600020541015610447576040517f08c379a00000000000000000000000000000000000000000000000000000000081526004018080602001828103825260128152602001807f4e6f7420656e6f7567682062616c616e6365000000000000000000000000000081525060200191505060405180910390fd5b80600160008573ffffffffffffffffffffffffffffffffffffffff1673ffffffffffffffffffffffffffffffffffffffff1681526020019081526020016000206000828254039250508190555080600160008473ffffffffffffffffffffffffffffffffffffffff1673ffffffffffffffffffffffffffffffffffffffff16815260200190815260200160002060008282540192505081905550505050565b6000600160008373ffffffffffffffffffffffffffffffffffffffff1673ffffffffffffffffffffffffffffffffffffffff1681526020019081526020016000205490509190505600a165627a7a72305820b335804f3ae5cf2848210e2bd46c8cdbe01a8ff6e9d5d996bfdb56f22f5cafbb0029",
  "source": "pragma solidity ^0.4.24;\n\nimport \"./PorthosContract.sol\";\n\ncontract T2 is PorthosContract {\n\n  address alice = 0xe9ff96cd80f97a9a27ca7b8a19296b8c55885dd7;\n  address bob = 0xf927acf6405b0a5153a064f6933971320f234da0;\n  address charlie = 0xaa4b4a309b7c50eae56b61835cd7ecaa21b3ea17;\n\nfunction continue_1() private\n{\n  if(!semaphore[\"semLeft1\"])\n    return;\n  if(!semaphore[\"semRight1\"])\n    return;\n  setContractStatus(2);\n  emit LogEvent(\"ready\");\n  openGate(\"c3\");\n}\n\nfunction c3_commit(string _assetType, uint _quantity, address _recipient) public\n{\n  if(msg.sender != charlie)\n    return;\n  if(_recipient != bob)\n    return;\n  if(!isGateOpen(\"c3\"))\n    return;\n  addCommitment(Commitment({tagId: \"\", sender: msg.sender, recipient: _recipient, assetType: _assetType, quantity: _quantity, status: 0}));\n  setContractStatus(3);\n  closeGate(\"c3\");\n\n  string memory allCommitments = getAllCommitments();\n  emit LogEvent(allCommitments);\n\n  cancelCommitments(allCommitments);\n}\n\nfunction c3_timeout() public\n{\n  if(now > 200)\n    return;\n  if(!isGateOpen(\"c3\"))\n    return;\n  setContractStatus(4);\n  closeGate(\"c3\");\n  /* releaseCommitments([1,2,3]); */\n}\n\nconstructor() public\n{\n  setContractStatus(5);\n  semaphore[\"semLeft1\"] = false;\n  semaphore[\"semRight1\"] = false;\n  emit LogEvent(\"starting c1\");\n  openGate(\"c1\");\n  emit LogEvent(\"starting c2\");\n  openGate(\"c2\");\n  eurAssetRegistry.issueAssets(alice, 100);\n  eurAssetRegistry.issueAssets(bob, 100);\n  eurAssetRegistry.issueAssets(charlie, 100);\n}\n\nfunction c1_commit(string _assetType, uint _quantity, address _recipient) public\n{\n  if(msg.sender != bob)\n    return;\n  if(_recipient != alice)\n    return;\n  if(!isGateOpen(\"c1\"))\n    return;\n  addCommitment(Commitment({tagId: \"\", sender: msg.sender, recipient: _recipient, assetType: _assetType, quantity: _quantity, status: 0}));\n  setContractStatus(6);\n  closeGate(\"c1\");\n  semaphore[\"semLeft1\"] = true;\n  continue_1();\n}\n\nfunction c1_timeout() public\n{\n  if(now > 200)\n    return;\n  if(!isGateOpen(\"c1\"))\n    return;\n  setContractStatus(7);\n  closeGate(\"c1\");\n  semaphore[\"semLeft1\"] = true;\n  continue_1();\n}\n\nfunction c2_commit(string _assetType, uint _quantity, address _recipient) public\n{\n  if(msg.sender != alice)\n    return;\n  if(_recipient != bob)\n    return;\n  if(!isGateOpen(\"c2\"))\n    return;\n  addCommitment(Commitment({tagId: \"\", sender: msg.sender, recipient: _recipient, assetType: _assetType, quantity: _quantity, status: 0}));\n  setContractStatus(8);\n  closeGate(\"c2\");\n  semaphore[\"semRight1\"] = true;\n  continue_1();\n}\n\nfunction c2_timeout() public\n{\n  if(now > 200)\n    return;\n  if(!isGateOpen(\"c2\"))\n    return;\n  setContractStatus(9);\n  closeGate(\"c2\");\n  semaphore[\"semRight1\"] = true;\n  continue_1();\n}\n\n}\n",
  "sourcePath": "/Users/adrian/Cloud Drives/Dropbox/Dev/porthos/solidity/contracts/T2.sol",
  "compiler": {
    "name": "solc",
    "version": "0.4.24+commit.e67f0147.Emscripten.clang"
  },
  "schemaVersion": "2.0.1",
  "updatedAt": "2018-10-07T09:07:35.592Z"
}